{
  "contractName": "Properties",
  "abi": [
    {
      "anonymous": false,
      "inputs": [
        {
          "indexed": false,
          "name": "_creator",
          "type": "address"
        },
        {
          "indexed": false,
          "name": "_name",
          "type": "bytes32"
        },
        {
          "indexed": false,
          "name": "_desc",
          "type": "bytes32"
        },
        {
          "indexed": false,
          "name": "_id",
          "type": "bytes32"
        },
        {
          "indexed": false,
          "name": "_owner",
          "type": "address"
        },
        {
          "indexed": false,
          "name": "_saleStatus",
          "type": "uint8"
        }
      ],
      "name": "Register",
      "type": "event"
    },
    {
      "anonymous": false,
      "inputs": [
        {
          "indexed": false,
          "name": "_creator",
          "type": "address"
        },
        {
          "indexed": false,
          "name": "_name",
          "type": "bytes32"
        },
        {
          "indexed": false,
          "name": "_desc",
          "type": "bytes32"
        },
        {
          "indexed": false,
          "name": "_id",
          "type": "bytes32"
        },
        {
          "indexed": false,
          "name": "_owner",
          "type": "address"
        },
        {
          "indexed": false,
          "name": "_saleStatus",
          "type": "uint8"
        },
        {
          "indexed": false,
          "name": "_askingPrice",
          "type": "uint256"
        }
      ],
      "name": "Sell",
      "type": "event"
    },
    {
      "anonymous": false,
      "inputs": [
        {
          "indexed": false,
          "name": "_creator",
          "type": "address"
        },
        {
          "indexed": false,
          "name": "_name",
          "type": "bytes32"
        },
        {
          "indexed": false,
          "name": "_desc",
          "type": "bytes32"
        },
        {
          "indexed": false,
          "name": "_id",
          "type": "bytes32"
        },
        {
          "indexed": false,
          "name": "_owner",
          "type": "address"
        },
        {
          "indexed": false,
          "name": "_saleStatus",
          "type": "uint8"
        }
      ],
      "name": "CancelSell",
      "type": "event"
    },
    {
      "anonymous": false,
      "inputs": [
        {
          "indexed": false,
          "name": "_offerDate",
          "type": "uint256"
        },
        {
          "indexed": false,
          "name": "_creator",
          "type": "address"
        },
        {
          "indexed": false,
          "name": "_name",
          "type": "bytes32"
        },
        {
          "indexed": false,
          "name": "_desc",
          "type": "bytes32"
        },
        {
          "indexed": false,
          "name": "_id",
          "type": "bytes32"
        },
        {
          "indexed": false,
          "name": "_owner",
          "type": "address"
        },
        {
          "indexed": false,
          "name": "_saleStatus",
          "type": "uint8"
        },
        {
          "indexed": false,
          "name": "_sellingTo",
          "type": "address"
        }
      ],
      "name": "Offer",
      "type": "event"
    },
    {
      "anonymous": false,
      "inputs": [
        {
          "indexed": false,
          "name": "_transferDate",
          "type": "uint256"
        },
        {
          "indexed": false,
          "name": "_creator",
          "type": "address"
        },
        {
          "indexed": false,
          "name": "_name",
          "type": "bytes32"
        },
        {
          "indexed": false,
          "name": "_desc",
          "type": "bytes32"
        },
        {
          "indexed": false,
          "name": "_id",
          "type": "bytes32"
        },
        {
          "indexed": false,
          "name": "_owner",
          "type": "address"
        },
        {
          "indexed": false,
          "name": "_saleStatus",
          "type": "uint8"
        },
        {
          "indexed": false,
          "name": "_from",
          "type": "address"
        }
      ],
      "name": "Transfer",
      "type": "event"
    },
    {
      "constant": false,
      "inputs": [
        {
          "name": "_name",
          "type": "bytes32"
        },
        {
          "name": "_desc",
          "type": "bytes32"
        },
        {
          "name": "_hash",
          "type": "bytes32"
        }
      ],
      "name": "register",
      "outputs": [
        {
          "name": "",
          "type": "bytes32"
        }
      ],
      "payable": false,
      "stateMutability": "nonpayable",
      "type": "function"
    },
    {
      "constant": false,
      "inputs": [
        {
          "name": "_propertyId",
          "type": "bytes32"
        },
        {
          "name": "_price",
          "type": "uint256"
        },
        {
          "name": "_to",
          "type": "address"
        }
      ],
      "name": "initiateSale",
      "outputs": [],
      "payable": false,
      "stateMutability": "nonpayable",
      "type": "function"
    },
    {
      "constant": false,
      "inputs": [
        {
          "name": "_propertyId",
          "type": "bytes32"
        }
      ],
      "name": "cancelSale",
      "outputs": [],
      "payable": false,
      "stateMutability": "nonpayable",
      "type": "function"
    },
    {
      "constant": false,
      "inputs": [
        {
          "name": "_propertyId",
          "type": "bytes32"
        }
      ],
      "name": "offer",
      "outputs": [],
      "payable": true,
      "stateMutability": "payable",
      "type": "function"
    },
    {
      "constant": false,
      "inputs": [
        {
          "name": "_propertyId",
          "type": "bytes32"
        }
      ],
      "name": "completeSale",
      "outputs": [],
      "payable": false,
      "stateMutability": "nonpayable",
      "type": "function"
    },
    {
      "constant": true,
      "inputs": [],
      "name": "listAllMyProperties",
      "outputs": [
        {
          "name": "",
          "type": "address[]"
        },
        {
          "name": "",
          "type": "bytes32[]"
        },
        {
          "name": "",
          "type": "bytes32[]"
        },
        {
          "name": "",
          "type": "bytes32[]"
        },
        {
          "name": "",
          "type": "uint8[]"
        },
        {
          "name": "",
          "type": "address[]"
        },
        {
          "name": "",
          "type": "uint256[]"
        }
      ],
      "payable": false,
      "stateMutability": "view",
      "type": "function"
    },
    {
      "constant": true,
      "inputs": [],
      "name": "listAllBuyableProperties",
      "outputs": [
        {
          "name": "",
          "type": "address[]"
        },
        {
          "name": "",
          "type": "bytes32[]"
        },
        {
          "name": "",
          "type": "bytes32[]"
        },
        {
          "name": "",
          "type": "bytes32[]"
        },
        {
          "name": "",
          "type": "address[]"
        },
        {
          "name": "",
          "type": "uint256[]"
        }
      ],
      "payable": false,
      "stateMutability": "view",
      "type": "function"
    },
    {
      "constant": true,
      "inputs": [
        {
          "name": "_hash",
          "type": "bytes32"
        }
      ],
      "name": "getOwner",
      "outputs": [
        {
          "name": "",
          "type": "address"
        }
      ],
      "payable": false,
      "stateMutability": "view",
      "type": "function"
    }
  ],
  "bytecode": "0x6060604052341561000f57600080fd5b61316e8061001e6000396000f30060606040526004361061008e576000357c0100000000000000000000000000000000000000000000000000000000900463ffffffff1680630bea8985146100935780632ac7842f146100ba5780634da274fd146100e1578063633d83dd1461013e5780638314d1e114610310578063deb931a21461052a578063dec4b4b814610591578063f41847a4146105ad575b600080fd5b341561009e57600080fd5b6100b86004808035600019169060200190919050506105fc565b005b34156100c557600080fd5b6100df600480803560001916906020019091905050610998565b005b34156100ec57600080fd5b6101206004808035600019169060200190919080356000191690602001909190803560001916906020019091905050610eaa565b60405180826000191660001916815260200191505060405180910390f35b341561014957600080fd5b61015161154a565b6040518080602001806020018060200180602001806020018060200187810387528d818151815260200191508051906020019060200280838360005b838110156101a857808201518184015260208101905061018d565b5050505090500187810386528c818151815260200191508051906020019060200280838360005b838110156101ea5780820151818401526020810190506101cf565b5050505090500187810385528b818151815260200191508051906020019060200280838360005b8381101561022c578082015181840152602081019050610211565b5050505090500187810384528a818151815260200191508051906020019060200280838360005b8381101561026e578082015181840152602081019050610253565b50505050905001878103835289818151815260200191508051906020019060200280838360005b838110156102b0578082015181840152602081019050610295565b50505050905001878103825288818151815260200191508051906020019060200280838360005b838110156102f25780820151818401526020810190506102d7565b505050509050019c5050505050505050505050505060405180910390f35b341561031b57600080fd5b610323611c79565b604051808060200180602001806020018060200180602001806020018060200188810388528f818151815260200191508051906020019060200280838360005b8381101561037e578082015181840152602081019050610363565b5050505090500188810387528e818151815260200191508051906020019060200280838360005b838110156103c05780820151818401526020810190506103a5565b5050505090500188810386528d818151815260200191508051906020019060200280838360005b838110156104025780820151818401526020810190506103e7565b5050505090500188810385528c818151815260200191508051906020019060200280838360005b83811015610444578082015181840152602081019050610429565b5050505090500188810384528b818151815260200191508051906020019060200280838360005b8381101561048657808201518184015260208101905061046b565b5050505090500188810383528a818151815260200191508051906020019060200280838360005b838110156104c85780820151818401526020810190506104ad565b50505050905001888103825289818151815260200191508051906020019060200280838360005b8381101561050a5780820151818401526020810190506104ef565b505050509050019e50505050505050505050505050505060405180910390f35b341561053557600080fd5b61054f6004808035600019169060200190919050506121d0565b604051808273ffffffffffffffffffffffffffffffffffffffff1673ffffffffffffffffffffffffffffffffffffffff16815260200191505060405180910390f35b6105ab600480803560001916906020019091905050612215565b005b34156105b857600080fd5b6105fa60048080356000191690602001909190803590602001909190803573ffffffffffffffffffffffffffffffffffffffff16906020019091905050612920565b005b8060006001600083600019166000191681526020019081526020016000205481548110151561062757fe5b906000526020600020906007020160040160009054906101000a900473ffffffffffffffffffffffffffffffffffffffff1673ffffffffffffffffffffffffffffffffffffffff163373ffffffffffffffffffffffffffffffffffffffff1614151561069257600080fd5b6001600281111561069f57fe5b6000600160008560001916600019168152602001908152602001600020548154811015156106c957fe5b906000526020600020906007020160040160149054906101000a900460ff1660028111156106f357fe5b1415156106ff57600080fd5b61070882612edf565b7f8c88b50842ef29fa4f175008326ffba0c2ad39d1cd589a7d4b5a2aeaedd70f4460006001600085600019166000191681526020019081526020016000205481548110151561075357fe5b906000526020600020906007020160000160009054906101000a900473ffffffffffffffffffffffffffffffffffffffff166000600160008660001916600019168152602001908152602001600020548154811015156107af57fe5b9060005260206000209060070201600101546000600160008760001916600019168152602001908152602001600020548154811015156107eb57fe5b90600052602060002090600702016002015460006001600088600019166000191681526020019081526020016000205481548110151561082757fe5b90600052602060002090600702016003015460006001600089600019166000191681526020019081526020016000205481548110151561086357fe5b906000526020600020906007020160040160009054906101000a900473ffffffffffffffffffffffffffffffffffffffff166000600160008a60001916600019168152602001908152602001600020548154811015156108bf57fe5b906000526020600020906007020160040160149054906101000a900460ff16604051808773ffffffffffffffffffffffffffffffffffffffff1673ffffffffffffffffffffffffffffffffffffffff1681526020018660001916600019168152602001856000191660001916815260200184600019166000191681526020018373ffffffffffffffffffffffffffffffffffffffff1673ffffffffffffffffffffffffffffffffffffffff16815260200182600281111561097c57fe5b60ff168152602001965050505050505060405180910390a15050565b600080826000600160008360001916600019168152602001908152602001600020548154811015156109c657fe5b906000526020600020906007020160040160009054906101000a900473ffffffffffffffffffffffffffffffffffffffff1673ffffffffffffffffffffffffffffffffffffffff163373ffffffffffffffffffffffffffffffffffffffff16141515610a3157600080fd5b600280811115610a3d57fe5b600060016000876000191660001916815260200190815260200160002054815481101515610a6757fe5b906000526020600020906007020160040160149054906101000a900460ff166002811115610a9157fe5b141515610a9d57600080fd5b600060016000866000191660001916815260200190815260200160002054815481101515610ac757fe5b906000526020600020906007020160040160009054906101000a900473ffffffffffffffffffffffffffffffffffffffff169250600060016000866000191660001916815260200190815260200160002054815481101515610b2557fe5b906000526020600020906007020160050160009054906101000a900473ffffffffffffffffffffffffffffffffffffffff16915081600060016000876000191660001916815260200190815260200160002054815481101515610b8457fe5b906000526020600020906007020160040160006101000a81548173ffffffffffffffffffffffffffffffffffffffff021916908373ffffffffffffffffffffffffffffffffffffffff160217905550610bdc84612edf565b7f6760fc811ad0aa0cc201d67df78048fabaffbbc5466420648282c407fbf9182442600060016000886000191660001916815260200190815260200160002054815481101515610c2857fe5b906000526020600020906007020160000160009054906101000a900473ffffffffffffffffffffffffffffffffffffffff16600060016000896000191660001916815260200190815260200160002054815481101515610c8457fe5b9060005260206000209060070201600101546000600160008a6000191660001916815260200190815260200160002054815481101515610cc057fe5b9060005260206000209060070201600201546000600160008b6000191660001916815260200190815260200160002054815481101515610cfc57fe5b9060005260206000209060070201600301546000600160008c6000191660001916815260200190815260200160002054815481101515610d3857fe5b906000526020600020906007020160040160009054906101000a900473ffffffffffffffffffffffffffffffffffffffff166000600160008d6000191660001916815260200190815260200160002054815481101515610d9457fe5b906000526020600020906007020160040160149054906101000a900460ff168a604051808981526020018873ffffffffffffffffffffffffffffffffffffffff1673ffffffffffffffffffffffffffffffffffffffff1681526020018760001916600019168152602001866000191660001916815260200185600019166000191681526020018473ffffffffffffffffffffffffffffffffffffffff1673ffffffffffffffffffffffffffffffffffffffff168152602001836002811115610e5857fe5b60ff1681526020018273ffffffffffffffffffffffffffffffffffffffff1673ffffffffffffffffffffffffffffffffffffffff1681526020019850505050505050505060405180910390a150505050565b600080600073ffffffffffffffffffffffffffffffffffffffff1660026000856000191660001916815260200190815260200160002060009054906101000a900473ffffffffffffffffffffffffffffffffffffffff1673ffffffffffffffffffffffffffffffffffffffff1614156111b557600080549050905060008054806001018281610f399190612ff8565b91600052602060002090600702016000610100604051908101604052803373ffffffffffffffffffffffffffffffffffffffff1681526020018960001916815260200188600019168152602001876000191681526020013373ffffffffffffffffffffffffffffffffffffffff16815260200160006002811115610fb957fe5b8152602001600073ffffffffffffffffffffffffffffffffffffffff1681526020016000815250909190915060008201518160000160006101000a81548173ffffffffffffffffffffffffffffffffffffffff021916908373ffffffffffffffffffffffffffffffffffffffff16021790555060208201518160010190600019169055604082015181600201906000191690556060820151816003019060001916905560808201518160040160006101000a81548173ffffffffffffffffffffffffffffffffffffffff021916908373ffffffffffffffffffffffffffffffffffffffff16021790555060a08201518160040160146101000a81548160ff021916908360028111156110c757fe5b021790555060c08201518160050160006101000a81548173ffffffffffffffffffffffffffffffffffffffff021916908373ffffffffffffffffffffffffffffffffffffffff16021790555060e082015181600601555050506001810160008054905014151561113657600080fd5b80600160008560001916600019168152602001908152602001600020819055503360026000856000191660001916815260200190815260200160002060006101000a81548173ffffffffffffffffffffffffffffffffffffffff021916908373ffffffffffffffffffffffffffffffffffffffff1602179055506112b3565b3373ffffffffffffffffffffffffffffffffffffffff1660026000856000191660001916815260200190815260200160002060009054906101000a900473ffffffffffffffffffffffffffffffffffffffff1673ffffffffffffffffffffffffffffffffffffffff1614151561122a57600080fd5b8460006001600086600019166000191681526020019081526020016000205481548110151561125557fe5b906000526020600020906007020160010181600019169055508360006001600086600019166000191681526020019081526020016000205481548110151561129957fe5b906000526020600020906007020160020181600019169055505b7fcf1a99552eea5f1b51b6d8125c0c9c8a2bba03cc944af94829a8feda944bfb296000600160008660001916600019168152602001908152602001600020548154811015156112fe57fe5b906000526020600020906007020160000160009054906101000a900473ffffffffffffffffffffffffffffffffffffffff1660006001600087600019166000191681526020019081526020016000205481548110151561135a57fe5b90600052602060002090600702016001015460006001600088600019166000191681526020019081526020016000205481548110151561139657fe5b9060005260206000209060070201600201546000600160008960001916600019168152602001908152602001600020548154811015156113d257fe5b9060005260206000209060070201600301546000600160008a600019166000191681526020019081526020016000205481548110151561140e57fe5b906000526020600020906007020160040160009054906101000a900473ffffffffffffffffffffffffffffffffffffffff166000600160008b600019166000191681526020019081526020016000205481548110151561146a57fe5b906000526020600020906007020160040160149054906101000a900460ff16604051808773ffffffffffffffffffffffffffffffffffffffff1673ffffffffffffffffffffffffffffffffffffffff1681526020018660001916600019168152602001856000191660001916815260200184600019166000191681526020018373ffffffffffffffffffffffffffffffffffffffff1673ffffffffffffffffffffffffffffffffffffffff16815260200182600281111561152757fe5b60ff168152602001965050505050505060405180910390a1829150509392505050565b61155261302a565b61155a61303e565b61156261303e565b61156a61303e565b61157261302a565b61157a613052565b60008061158561302a565b61158d61303e565b61159561303e565b61159d61303e565b6115a561302a565b6115ad613052565b60009750600096505b60008054905087101561178b57600160028111156115d057fe5b6000888154811015156115df57fe5b906000526020600020906007020160040160149054906101000a900460ff16600281111561160957fe5b14801561168257503373ffffffffffffffffffffffffffffffffffffffff1660008881548110151561163757fe5b906000526020600020906007020160040160009054906101000a900473ffffffffffffffffffffffffffffffffffffffff1673ffffffffffffffffffffffffffffffffffffffff1614155b80156117705750600073ffffffffffffffffffffffffffffffffffffffff166000888154811015156116b057fe5b906000526020600020906007020160050160009054906101000a900473ffffffffffffffffffffffffffffffffffffffff1673ffffffffffffffffffffffffffffffffffffffff16148061176f57503373ffffffffffffffffffffffffffffffffffffffff1660008881548110151561172557fe5b906000526020600020906007020160050160009054906101000a900473ffffffffffffffffffffffffffffffffffffffff1673ffffffffffffffffffffffffffffffffffffffff16145b5b1561177e5787806001019850505b86806001019750506115b6565b876040518059106117995750595b90808252806020026020018201604052509550876040518059106117ba5750595b90808252806020026020018201604052509450876040518059106117db5750595b90808252806020026020018201604052509350876040518059106117fc5750595b908082528060200260200182016040525092508760405180591061181d5750595b908082528060200260200182016040525091508760405180591061183e5750595b9080825280602002602001820160405250905060009750600096505b600080549050871015611c57576001600281111561187457fe5b60008881548110151561188357fe5b906000526020600020906007020160040160149054906101000a900460ff1660028111156118ad57fe5b14801561192657503373ffffffffffffffffffffffffffffffffffffffff166000888154811015156118db57fe5b906000526020600020906007020160040160009054906101000a900473ffffffffffffffffffffffffffffffffffffffff1673ffffffffffffffffffffffffffffffffffffffff1614155b8015611a145750600073ffffffffffffffffffffffffffffffffffffffff1660008881548110151561195457fe5b906000526020600020906007020160050160009054906101000a900473ffffffffffffffffffffffffffffffffffffffff1673ffffffffffffffffffffffffffffffffffffffff161480611a1357503373ffffffffffffffffffffffffffffffffffffffff166000888154811015156119c957fe5b906000526020600020906007020160050160009054906101000a900473ffffffffffffffffffffffffffffffffffffffff1673ffffffffffffffffffffffffffffffffffffffff16145b5b15611c4a57600087815481101515611a2857fe5b906000526020600020906007020160000160009054906101000a900473ffffffffffffffffffffffffffffffffffffffff168689815181101515611a6857fe5b9060200190602002019073ffffffffffffffffffffffffffffffffffffffff16908173ffffffffffffffffffffffffffffffffffffffff1681525050600087815481101515611ab357fe5b9060005260206000209060070201600101548589815181101515611ad357fe5b906020019060200201906000191690816000191681525050600087815481101515611afa57fe5b9060005260206000209060070201600201548489815181101515611b1a57fe5b906020019060200201906000191690816000191681525050600087815481101515611b4157fe5b9060005260206000209060070201600301548389815181101515611b6157fe5b906020019060200201906000191690816000191681525050600087815481101515611b8857fe5b906000526020600020906007020160040160009054906101000a900473ffffffffffffffffffffffffffffffffffffffff168289815181101515611bc857fe5b9060200190602002019073ffffffffffffffffffffffffffffffffffffffff16908173ffffffffffffffffffffffffffffffffffffffff1681525050600087815481101515611c1357fe5b9060005260206000209060070201600601548189815181101515611c3357fe5b906020019060200201818152505087806001019850505b868060010197505061185a565b8585858585859d509d509d509d509d509d505050505050505050909192939495565b611c8161302a565b611c8961303e565b611c9161303e565b611c9961303e565b611ca1613066565b611ca961302a565b611cb1613052565b600080611cbc61302a565b611cc461303e565b611ccc61303e565b611cd461303e565b611cdc613066565b611ce461302a565b611cec613052565b60009850600097505b600080549050881015611d8c573373ffffffffffffffffffffffffffffffffffffffff16600089815481101515611d2857fe5b906000526020600020906007020160040160009054906101000a900473ffffffffffffffffffffffffffffffffffffffff1673ffffffffffffffffffffffffffffffffffffffff161415611d7f5788806001019950505b8780600101985050611cf5565b88604051805910611d9a5750595b9080825280602002602001820160405250965088604051805910611dbb5750595b9080825280602002602001820160405250955088604051805910611ddc5750595b9080825280602002602001820160405250945088604051805910611dfd5750595b9080825280602002602001820160405250935088604051805910611e1e5750595b9080825280602002602001820160405250925088604051805910611e3f5750595b9080825280602002602001820160405250915088604051805910611e605750595b9080825280602002602001820160405250905060009850600097505b60008054905088108015611e905750835189105b156121a9573373ffffffffffffffffffffffffffffffffffffffff16600089815481101515611ebb57fe5b906000526020600020906007020160040160009054906101000a900473ffffffffffffffffffffffffffffffffffffffff1673ffffffffffffffffffffffffffffffffffffffff16141561219c57600088815481101515611f1857fe5b906000526020600020906007020160000160009054906101000a900473ffffffffffffffffffffffffffffffffffffffff16878a815181101515611f5857fe5b9060200190602002019073ffffffffffffffffffffffffffffffffffffffff16908173ffffffffffffffffffffffffffffffffffffffff1681525050600088815481101515611fa357fe5b906000526020600020906007020160010154868a815181101515611fc357fe5b906020019060200201906000191690816000191681525050600088815481101515611fea57fe5b906000526020600020906007020160020154858a81518110151561200a57fe5b90602001906020020190600019169081600019168152505060008881548110151561203157fe5b906000526020600020906007020160030154848a81518110151561205157fe5b90602001906020020190600019169081600019168152505060008881548110151561207857fe5b906000526020600020906007020160040160149054906101000a900460ff16838a8151811015156120a557fe5b9060200190602002019060028111156120ba57fe5b908160028111156120c757fe5b815250506000888154811015156120da57fe5b906000526020600020906007020160050160009054906101000a900473ffffffffffffffffffffffffffffffffffffffff16828a81518110151561211a57fe5b9060200190602002019073ffffffffffffffffffffffffffffffffffffffff16908173ffffffffffffffffffffffffffffffffffffffff168152505060008881548110151561216557fe5b906000526020600020906007020160060154818a81518110151561218557fe5b906020019060200201818152505088806001019950505b8780600101985050611e7c565b868686868686869f509f509f509f509f509f509f5050505050505050505090919293949596565b600060026000836000191660001916815260200190815260200160002060009054906101000a900473ffffffffffffffffffffffffffffffffffffffff169050919050565b6001600281111561222257fe5b60006001600084600019166000191681526020019081526020016000205481548110151561224c57fe5b906000526020600020906007020160040160149054906101000a900460ff16600281111561227657fe5b14151561228257600080fd5b6000600160008360001916600019168152602001908152602001600020548154811015156122ac57fe5b906000526020600020906007020160040160009054906101000a900473ffffffffffffffffffffffffffffffffffffffff1673ffffffffffffffffffffffffffffffffffffffff163373ffffffffffffffffffffffffffffffffffffffff161415151561231857600080fd5b60006001600083600019166000191681526020019081526020016000205481548110151561234257fe5b906000526020600020906007020160050160009054906101000a900473ffffffffffffffffffffffffffffffffffffffff1673ffffffffffffffffffffffffffffffffffffffff163373ffffffffffffffffffffffffffffffffffffffff1614806124345750600073ffffffffffffffffffffffffffffffffffffffff166000600160008460001916600019168152602001908152602001600020548154811015156123ea57fe5b906000526020600020906007020160050160009054906101000a900473ffffffffffffffffffffffffffffffffffffffff1673ffffffffffffffffffffffffffffffffffffffff16145b151561243f57600080fd5b60006001600083600019166000191681526020019081526020016000205481548110151561246957fe5b9060005260206000209060070201600601543414151561248857600080fd5b60026000600160008460001916600019168152602001908152602001600020548154811015156124b457fe5b906000526020600020906007020160040160146101000a81548160ff021916908360028111156124e057fe5b02179055503360006001600084600019166000191681526020019081526020016000205481548110151561251057fe5b906000526020600020906007020160050160006101000a81548173ffffffffffffffffffffffffffffffffffffffff021916908373ffffffffffffffffffffffffffffffffffffffff16021790555060006001600083600019166000191681526020019081526020016000205481548110151561258957fe5b906000526020600020906007020160040160009054906101000a900473ffffffffffffffffffffffffffffffffffffffff1673ffffffffffffffffffffffffffffffffffffffff166108fc349081150290604051600060405180830381858888f1935050505015156125fa57600080fd5b7fa883835162e7ed75cbc796fc02d78c72db0a39c0e036e879ab2305d575e59c094260006001600085600019166000191681526020019081526020016000205481548110151561264657fe5b906000526020600020906007020160000160009054906101000a900473ffffffffffffffffffffffffffffffffffffffff166000600160008660001916600019168152602001908152602001600020548154811015156126a257fe5b9060005260206000209060070201600101546000600160008760001916600019168152602001908152602001600020548154811015156126de57fe5b90600052602060002090600702016002015460006001600088600019166000191681526020019081526020016000205481548110151561271a57fe5b90600052602060002090600702016003015460006001600089600019166000191681526020019081526020016000205481548110151561275657fe5b906000526020600020906007020160040160009054906101000a900473ffffffffffffffffffffffffffffffffffffffff166000600160008a60001916600019168152602001908152602001600020548154811015156127b257fe5b906000526020600020906007020160040160149054906101000a900460ff166000600160008b60001916600019168152602001908152602001600020548154811015156127fb57fe5b906000526020600020906007020160050160009054906101000a900473ffffffffffffffffffffffffffffffffffffffff16604051808981526020018873ffffffffffffffffffffffffffffffffffffffff1673ffffffffffffffffffffffffffffffffffffffff1681526020018760001916600019168152602001866000191660001916815260200185600019166000191681526020018473ffffffffffffffffffffffffffffffffffffffff1673ffffffffffffffffffffffffffffffffffffffff1681526020018360028111156128d157fe5b60ff1681526020018273ffffffffffffffffffffffffffffffffffffffff1673ffffffffffffffffffffffffffffffffffffffff1681526020019850505050505050505060405180910390a150565b8260006001600083600019166000191681526020019081526020016000205481548110151561294b57fe5b906000526020600020906007020160040160009054906101000a900473ffffffffffffffffffffffffffffffffffffffff1673ffffffffffffffffffffffffffffffffffffffff163373ffffffffffffffffffffffffffffffffffffffff161415156129b657600080fd5b83600060028111156129c457fe5b6000600160008460001916600019168152602001908152602001600020548154811015156129ee57fe5b906000526020600020906007020160040160149054906101000a900460ff166002811115612a1857fe5b141515612a2457600080fd5b3073ffffffffffffffffffffffffffffffffffffffff168373ffffffffffffffffffffffffffffffffffffffff1614158015612ae75750600060016000876000191660001916815260200190815260200160002054815481101515612a8557fe5b906000526020600020906007020160040160009054906101000a900473ffffffffffffffffffffffffffffffffffffffff1673ffffffffffffffffffffffffffffffffffffffff168373ffffffffffffffffffffffffffffffffffffffff1614155b1515612af257600080fd5b6001600060016000886000191660001916815260200190815260200160002054815481101515612b1e57fe5b906000526020600020906007020160040160146101000a81548160ff02191690836002811115612b4a57fe5b021790555082600060016000886000191660001916815260200190815260200160002054815481101515612b7a57fe5b906000526020600020906007020160050160006101000a81548173ffffffffffffffffffffffffffffffffffffffff021916908373ffffffffffffffffffffffffffffffffffffffff16021790555083600060016000886000191660001916815260200190815260200160002054815481101515612bf457fe5b9060005260206000209060070201600601819055507f53c039b378ed53f2afc8740d14ba1883ba999fd1e8481ced4efa78fd85b8b974600060016000886000191660001916815260200190815260200160002054815481101515612c5457fe5b906000526020600020906007020160000160009054906101000a900473ffffffffffffffffffffffffffffffffffffffff16600060016000896000191660001916815260200190815260200160002054815481101515612cb057fe5b9060005260206000209060070201600101546000600160008a6000191660001916815260200190815260200160002054815481101515612cec57fe5b9060005260206000209060070201600201546000600160008b6000191660001916815260200190815260200160002054815481101515612d2857fe5b9060005260206000209060070201600301546000600160008c6000191660001916815260200190815260200160002054815481101515612d6457fe5b906000526020600020906007020160040160009054906101000a900473ffffffffffffffffffffffffffffffffffffffff166000600160008d6000191660001916815260200190815260200160002054815481101515612dc057fe5b906000526020600020906007020160040160149054906101000a900460ff166000600160008e6000191660001916815260200190815260200160002054815481101515612e0957fe5b906000526020600020906007020160060154604051808873ffffffffffffffffffffffffffffffffffffffff1673ffffffffffffffffffffffffffffffffffffffff1681526020018760001916600019168152602001866000191660001916815260200185600019166000191681526020018473ffffffffffffffffffffffffffffffffffffffff1673ffffffffffffffffffffffffffffffffffffffff168152602001836002811115612eb957fe5b60ff16815260200182815260200197505050505050505060405180910390a15050505050565b60008060016000846000191660001916815260200190815260200160002054815481101515612f0a57fe5b906000526020600020906007020160040160146101000a81548160ff02191690836002811115612f3657fe5b021790555060008060016000846000191660001916815260200190815260200160002054815481101515612f6657fe5b906000526020600020906007020160050160006101000a81548173ffffffffffffffffffffffffffffffffffffffff021916908373ffffffffffffffffffffffffffffffffffffffff16021790555060008060016000846000191660001916815260200190815260200160002054815481101515612fe057fe5b90600052602060002090600702016006018190555050565b81548183558181151161302557600702816007028360005260206000209182019101613024919061307a565b5b505050565b602060405190810160405280600081525090565b602060405190810160405280600081525090565b602060405190810160405280600081525090565b602060405190810160405280600081525090565b61313f91905b8082111561313b57600080820160006101000a81549073ffffffffffffffffffffffffffffffffffffffff02191690556001820160009055600282016000905560038201600090556004820160006101000a81549073ffffffffffffffffffffffffffffffffffffffff02191690556004820160146101000a81549060ff02191690556005820160006101000a81549073ffffffffffffffffffffffffffffffffffffffff0219169055600682016000905550600701613080565b5090565b905600a165627a7a72305820aa4293ddcd283446c7628060b4fcb8f34e0a8cf7030e3e2a345e0ef04f23dfc10029",
  "source": "pragma solidity ^0.4.19;\r\n\r\n/**\r\n * Property Store\r\n * @author Jiangsha Liu\r\n */\r\ncontract Properties {\r\n    enum SaleStatus {OnHold, OnSale, Offered}\r\n\r\n    struct Property {\r\n        // The creator of this property\r\n        address creator;\r\n        \r\n        // Name of this property\r\n        bytes32 name;\r\n        \r\n        // Long description of this property\r\n        bytes32 desc;\r\n        \r\n        // ID of this property\r\n        bytes32 id;\r\n        \r\n        // The owner of the property\r\n        address owner;\r\n        \r\n        // Current sale status\r\n        SaleStatus saleStatus;\r\n        \r\n        // Who is the selected buyer, if any.\r\n        // Optional\r\n        address sellingTo;\r\n        \r\n        // How much ether (wei) the seller has asked the buyer to send\r\n        uint256 askingPrice;\r\n    }\r\n    \r\n    // All properties listed\r\n    Property[] private properties;\r\n    \r\n    // mapping between property index and id\r\n    mapping(bytes32=>uint256) private propertyIndexMap;\r\n\r\n    // mapping between property hash and user\r\n    mapping(bytes32=>address) private propertyOwnerMap;\r\n    \r\n    //\r\n    // Modifiers\r\n    // \r\n    \r\n    // Makes functions require the called to be the owner of the contract\r\n    modifier onlyOwner(bytes32 _propertyId) {\r\n        require(msg.sender == properties[propertyIndexMap[_propertyId]].owner);\r\n        _;\r\n    }\r\n    \r\n    // Add to functions that the owner wants to prevent being called while the\r\n    // contract is for sale or offered.\r\n    modifier ifOnHold(bytes32 _propertyId) {\r\n        require(properties[propertyIndexMap[_propertyId]].saleStatus == SaleStatus.OnHold);\r\n        _;\r\n    }   \r\n\r\n    event Register(address _creator, bytes32 _name, bytes32 _desc, bytes32 _id, address _owner, SaleStatus _saleStatus);\r\n    event Sell(address _creator, bytes32 _name, bytes32 _desc, bytes32 _id, address _owner, SaleStatus _saleStatus, uint256 _askingPrice);\r\n    event CancelSell(address _creator, bytes32 _name, bytes32 _desc, bytes32 _id, address _owner, SaleStatus _saleStatus);\r\n    event Offer(uint256 _offerDate, address _creator, bytes32 _name, bytes32 _desc, bytes32 _id, address _owner, SaleStatus _saleStatus, address _sellingTo); \r\n    event Transfer(uint256 _transferDate, address _creator, bytes32 _name, bytes32 _desc, bytes32 _id, address _owner, SaleStatus _saleStatus, address _from);\r\n\r\n    /**\r\n     * @param _name is name of property\r\n     * @param _desc is long description of property\r\n     * @param _hash is hash string generated from content\r\n     * \r\n     * id (timestamp of creation for now) of registered property is returned\r\n     */\r\n    function register(bytes32 _name, bytes32 _desc, bytes32 _hash) public returns (bytes32) {\r\n        if(propertyOwnerMap[_hash] == address(0)) {\r\n            uint256 currentSize = properties.length;\r\n\r\n            properties.push(Property({\r\n                creator: msg.sender, \r\n                name: _name, \r\n                desc: _desc, \r\n                id: _hash, \r\n                owner: msg.sender, \r\n                saleStatus: SaleStatus.OnHold, \r\n                sellingTo: address(0),\r\n                askingPrice: 0\r\n            }));\r\n            \r\n            require(properties.length == currentSize + 1);\r\n\r\n            propertyIndexMap[_hash] = currentSize;\r\n\r\n            propertyOwnerMap[_hash] = msg.sender;\r\n        }else{\r\n            require(propertyOwnerMap[_hash] == msg.sender);\r\n\r\n            properties[propertyIndexMap[_hash]].name = _name;\r\n            properties[propertyIndexMap[_hash]].desc = _desc;\r\n        }\r\n\r\n        emit Register(properties[propertyIndexMap[_hash]].creator, properties[propertyIndexMap[_hash]].name, properties[propertyIndexMap[_hash]].desc, properties[propertyIndexMap[_hash]].id, properties[propertyIndexMap[_hash]].owner, properties[propertyIndexMap[_hash]].saleStatus);\r\n\r\n        return _hash;\r\n    }\r\n    \r\n    /**\r\n     * initiateSale is called by the owner of the property to start\r\n     * the sale process.\r\n     * @param _propertyId is id of property returned in function \"register\"\r\n     * @param _price is the asking price for the sale\r\n     * @param _to (OPTIONAL) is the address of the person that the owner\r\n     * wants to sell the contract to. If set to 0x0, anyone can buy it.\r\n     */\r\n    function initiateSale(bytes32 _propertyId, uint256 _price, address _to) onlyOwner(_propertyId) ifOnHold(_propertyId) public {\r\n        require(_to != address(this) && _to != properties[propertyIndexMap[_propertyId]].owner);\r\n        \r\n        properties[propertyIndexMap[_propertyId]].saleStatus = SaleStatus.OnSale;\r\n        \r\n        // Set the target buyer, if specified.\r\n        properties[propertyIndexMap[_propertyId]].sellingTo = _to;\r\n        \r\n        properties[propertyIndexMap[_propertyId]].askingPrice = _price;\r\n\r\n        emit Sell(properties[propertyIndexMap[_propertyId]].creator, properties[propertyIndexMap[_propertyId]].name, properties[propertyIndexMap[_propertyId]].desc, properties[propertyIndexMap[_propertyId]].id, properties[propertyIndexMap[_propertyId]].owner, properties[propertyIndexMap[_propertyId]].saleStatus, properties[propertyIndexMap[_propertyId]].askingPrice);\r\n    }\r\n    \r\n    /**\r\n     * cancelSale allows the owner to cancel the sale before someone buys\r\n     * the contract.\r\n     */\r\n    function cancelSale(bytes32 _propertyId) onlyOwner(_propertyId) public {\r\n        require(properties[propertyIndexMap[_propertyId]].saleStatus == SaleStatus.OnSale);\r\n        \r\n        // Reset sale variables\r\n        resetSale(_propertyId);\r\n\r\n        emit CancelSell(properties[propertyIndexMap[_propertyId]].creator, properties[propertyIndexMap[_propertyId]].name, properties[propertyIndexMap[_propertyId]].desc, properties[propertyIndexMap[_propertyId]].id, properties[propertyIndexMap[_propertyId]].owner, properties[propertyIndexMap[_propertyId]].saleStatus);\r\n    }\r\n    \r\n    /** \r\n     * offer is called buy the specified buyer (or anyone if sellingTo)\r\n     * was not set, to make the purchase.\r\n     */\r\n    function offer(bytes32 _propertyId) public payable {\r\n        require(properties[propertyIndexMap[_propertyId]].saleStatus == SaleStatus.OnSale);\r\n        require(msg.sender != properties[propertyIndexMap[_propertyId]].owner);\r\n        require(msg.sender == properties[propertyIndexMap[_propertyId]].sellingTo || properties[propertyIndexMap[_propertyId]].sellingTo == address(0));\r\n        require(msg.value == properties[propertyIndexMap[_propertyId]].askingPrice);\r\n        \r\n        properties[propertyIndexMap[_propertyId]].saleStatus = SaleStatus.Offered;\r\n        properties[propertyIndexMap[_propertyId]].sellingTo = msg.sender;\r\n        \r\n        properties[propertyIndexMap[_propertyId]].owner.transfer(msg.value);\r\n        \r\n        emit Offer(now,properties[propertyIndexMap[_propertyId]].creator, properties[propertyIndexMap[_propertyId]].name, properties[propertyIndexMap[_propertyId]].desc, properties[propertyIndexMap[_propertyId]].id, properties[propertyIndexMap[_propertyId]].owner, properties[propertyIndexMap[_propertyId]].saleStatus, properties[propertyIndexMap[_propertyId]].sellingTo);\r\n    }\r\n\r\n    /** \r\n     * completeSale is called buy the owner to complete.\r\n     */\r\n    function completeSale(bytes32 _propertyId) onlyOwner(_propertyId) public {\r\n        require(properties[propertyIndexMap[_propertyId]].saleStatus == SaleStatus.Offered);\r\n        \r\n        // Swap ownership\r\n        address prevOwner = properties[propertyIndexMap[_propertyId]].owner;\r\n        address newOwner = properties[propertyIndexMap[_propertyId]].sellingTo;\r\n        properties[propertyIndexMap[_propertyId]].owner = newOwner;\r\n        \r\n        // Transaction cleanup\r\n        resetSale(_propertyId);\r\n        \r\n        emit Transfer(now,properties[propertyIndexMap[_propertyId]].creator, properties[propertyIndexMap[_propertyId]].name, properties[propertyIndexMap[_propertyId]].desc, properties[propertyIndexMap[_propertyId]].id, properties[propertyIndexMap[_propertyId]].owner, properties[propertyIndexMap[_propertyId]].saleStatus, prevOwner);\r\n    }\r\n\r\n    /**\r\n     * \r\n     * return all properties owned by msg.sender, including those created/registered by msg.sender.\r\n     * \r\n     * \r\n     */\r\n    function listAllMyProperties() public view returns(address[], bytes32[], bytes32[], bytes32[], SaleStatus[], address[], uint256[]) {\r\n        uint256 count = 0;\r\n        for (uint256 i = 0; i < properties.length; i++) {\r\n            if (properties[i].owner == msg.sender) {\r\n                count++;\r\n            }\r\n        }\r\n        \r\n        address[] memory _creator = new address[](count);\r\n        bytes32[] memory _name = new bytes32[](count);\r\n        bytes32[] memory _desc = new bytes32[](count);\r\n        bytes32[] memory _id = new bytes32[](count);\r\n        SaleStatus[] memory _saleStatus = new SaleStatus[](count);\r\n        address[] memory _sellingTo = new address[](count);\r\n        uint256[] memory _askingPrice = new uint256[](count);\r\n\r\n        count = 0;\r\n        for (i = 0; i < properties.length && count < _id.length; i++) {\r\n            if (properties[i].owner == msg.sender) {\r\n                _creator[count] = properties[i].creator;\r\n                _name[count] = properties[i].name;\r\n                _desc[count] = properties[i].desc;\r\n                _id[count] = properties[i].id;\r\n                _saleStatus[count] = properties[i].saleStatus;\r\n                _sellingTo[count] = properties[i].sellingTo;\r\n                _askingPrice[count] = properties[i].askingPrice;\r\n\r\n                count++;\r\n            }\r\n        }\r\n        \r\n        return (_creator, _name, _desc, _id, _saleStatus, _sellingTo, _askingPrice);\r\n    }\r\n\r\n \r\n\r\n    /**\r\n     * \r\n     * return all properties could be bought by msg.sender.\r\n     * \r\n     * \r\n     */\r\n    function listAllBuyableProperties() public view returns(address[], bytes32[], bytes32[], bytes32[], address[], uint256[]){\r\n        uint256 count = 0;\r\n        for (uint256 i = 0; i < properties.length; i++) {\r\n            if (properties[i].saleStatus == SaleStatus.OnSale && properties[i].owner != msg.sender && (properties[i].sellingTo == address(0) || properties[i].sellingTo == msg.sender)) {\r\n                count++;\r\n            }\r\n        }\r\n        \r\n        address[] memory _creator = new address[](count);\r\n        bytes32[] memory _name = new bytes32[](count);\r\n        bytes32[] memory _desc = new bytes32[](count);\r\n        bytes32[] memory _id = new bytes32[](count);\r\n        address[] memory _owner = new address[](count);\r\n        uint256[] memory _askingPrice = new uint256[](count);\r\n\r\n        count = 0;\r\n        for (i = 0; i < properties.length; i++) {\r\n            if (properties[i].saleStatus == SaleStatus.OnSale && properties[i].owner != msg.sender && (properties[i].sellingTo == address(0) || properties[i].sellingTo == msg.sender)) {\r\n                _creator[count] = properties[i].creator;\r\n                _name[count] = properties[i].name;\r\n                _desc[count] = properties[i].desc;\r\n                _id[count] = properties[i].id;\r\n                _owner[count] = properties[i].owner;\r\n                _askingPrice[count] = properties[i].askingPrice;\r\n                \r\n                count++;\r\n            }\r\n        }\r\n        \r\n        return (_creator, _name, _desc, _id, _owner, _askingPrice);        \r\n    }\r\n\r\n    /****\r\n    * get owner of this hash string generated from property content\r\n    */\r\n    function getOwner(bytes32 _hash) public view returns(address) {\r\n        return propertyOwnerMap[_hash];\r\n    }\r\n    \r\n    //\r\n    // Internal functions\r\n    //\r\n    \r\n    /**\r\n     * resets the variables related to a sale process\r\n     */\r\n    function resetSale(bytes32 _propertyId) internal {\r\n        properties[propertyIndexMap[_propertyId]].saleStatus = SaleStatus.OnHold;\r\n        properties[propertyIndexMap[_propertyId]].sellingTo = address(0);\r\n        properties[propertyIndexMap[_propertyId]].askingPrice = 0;\r\n    }\r\n}",
  "sourcePath": "C:\\workspace\\git\\PropertyStore_Ethereum\\contracts\\Properties.sol",
  "compiler": {
    "name": "solc",
    "version": "0.4.21+commit.dfe3193c.Emscripten.clang"
  },
  "schemaVersion": "2.0.0",
  "updatedAt": "2018-04-03T00:30:17.044Z"
}