{
  "contractName": "Properties",
  "abi": [
    {
      "anonymous": false,
      "inputs": [
        {
          "indexed": false,
          "name": "_creator",
          "type": "address"
        },
        {
          "indexed": false,
          "name": "_name",
          "type": "bytes32"
        },
        {
          "indexed": false,
          "name": "_desc",
          "type": "bytes32"
        },
        {
          "indexed": false,
          "name": "_id",
          "type": "bytes32"
        },
        {
          "indexed": false,
          "name": "_owner",
          "type": "address"
        },
        {
          "indexed": false,
          "name": "_saleStatus",
          "type": "uint8"
        }
      ],
      "name": "Register",
      "type": "event"
    },
    {
      "anonymous": false,
      "inputs": [
        {
          "indexed": false,
          "name": "_creator",
          "type": "address"
        },
        {
          "indexed": false,
          "name": "_name",
          "type": "bytes32"
        },
        {
          "indexed": false,
          "name": "_desc",
          "type": "bytes32"
        },
        {
          "indexed": false,
          "name": "_id",
          "type": "bytes32"
        },
        {
          "indexed": false,
          "name": "_owner",
          "type": "address"
        },
        {
          "indexed": false,
          "name": "_saleStatus",
          "type": "uint8"
        },
        {
          "indexed": false,
          "name": "_askingPrice",
          "type": "uint256"
        }
      ],
      "name": "Sell",
      "type": "event"
    },
    {
      "anonymous": false,
      "inputs": [
        {
          "indexed": false,
          "name": "_creator",
          "type": "address"
        },
        {
          "indexed": false,
          "name": "_name",
          "type": "bytes32"
        },
        {
          "indexed": false,
          "name": "_desc",
          "type": "bytes32"
        },
        {
          "indexed": false,
          "name": "_id",
          "type": "bytes32"
        },
        {
          "indexed": false,
          "name": "_owner",
          "type": "address"
        },
        {
          "indexed": false,
          "name": "_saleStatus",
          "type": "uint8"
        }
      ],
      "name": "CancelSell",
      "type": "event"
    },
    {
      "anonymous": false,
      "inputs": [
        {
          "indexed": false,
          "name": "_offerDate",
          "type": "uint256"
        },
        {
          "indexed": false,
          "name": "_creator",
          "type": "address"
        },
        {
          "indexed": false,
          "name": "_name",
          "type": "bytes32"
        },
        {
          "indexed": false,
          "name": "_desc",
          "type": "bytes32"
        },
        {
          "indexed": false,
          "name": "_id",
          "type": "bytes32"
        },
        {
          "indexed": false,
          "name": "_owner",
          "type": "address"
        },
        {
          "indexed": false,
          "name": "_saleStatus",
          "type": "uint8"
        },
        {
          "indexed": false,
          "name": "_sellingTo",
          "type": "address"
        }
      ],
      "name": "Offer",
      "type": "event"
    },
    {
      "anonymous": false,
      "inputs": [
        {
          "indexed": false,
          "name": "_transferDate",
          "type": "uint256"
        },
        {
          "indexed": false,
          "name": "_creator",
          "type": "address"
        },
        {
          "indexed": false,
          "name": "_name",
          "type": "bytes32"
        },
        {
          "indexed": false,
          "name": "_desc",
          "type": "bytes32"
        },
        {
          "indexed": false,
          "name": "_id",
          "type": "bytes32"
        },
        {
          "indexed": false,
          "name": "_owner",
          "type": "address"
        },
        {
          "indexed": false,
          "name": "_saleStatus",
          "type": "uint8"
        },
        {
          "indexed": false,
          "name": "_from",
          "type": "address"
        }
      ],
      "name": "Transfer",
      "type": "event"
    },
    {
      "constant": false,
      "inputs": [
        {
          "name": "_name",
          "type": "bytes32"
        },
        {
          "name": "_desc",
          "type": "bytes32"
        },
        {
          "name": "_hash",
          "type": "bytes32"
        }
      ],
      "name": "register",
      "outputs": [
        {
          "name": "",
          "type": "bytes32"
        }
      ],
      "payable": false,
      "stateMutability": "nonpayable",
      "type": "function"
    },
    {
      "constant": false,
      "inputs": [
        {
          "name": "_propertyId",
          "type": "bytes32"
        },
        {
          "name": "_price",
          "type": "uint256"
        },
        {
          "name": "_to",
          "type": "address"
        }
      ],
      "name": "initiateSale",
      "outputs": [],
      "payable": false,
      "stateMutability": "nonpayable",
      "type": "function"
    },
    {
      "constant": false,
      "inputs": [
        {
          "name": "_propertyId",
          "type": "bytes32"
        }
      ],
      "name": "cancelSale",
      "outputs": [],
      "payable": false,
      "stateMutability": "nonpayable",
      "type": "function"
    },
    {
      "constant": false,
      "inputs": [
        {
          "name": "_propertyId",
          "type": "bytes32"
        }
      ],
      "name": "offer",
      "outputs": [],
      "payable": true,
      "stateMutability": "payable",
      "type": "function"
    },
    {
      "constant": false,
      "inputs": [
        {
          "name": "_propertyId",
          "type": "bytes32"
        }
      ],
      "name": "completeSale",
      "outputs": [],
      "payable": false,
      "stateMutability": "nonpayable",
      "type": "function"
    },
    {
      "constant": true,
      "inputs": [],
      "name": "listAllMyProperties",
      "outputs": [
        {
          "name": "",
          "type": "address[]"
        },
        {
          "name": "",
          "type": "bytes32[]"
        },
        {
          "name": "",
          "type": "bytes32[]"
        },
        {
          "name": "",
          "type": "bytes32[]"
        },
        {
          "name": "",
          "type": "uint8[]"
        },
        {
          "name": "",
          "type": "address[]"
        },
        {
          "name": "",
          "type": "uint256[]"
        }
      ],
      "payable": false,
      "stateMutability": "view",
      "type": "function"
    },
    {
      "constant": true,
      "inputs": [],
      "name": "listAllBuyableProperties",
      "outputs": [
        {
          "name": "",
          "type": "address[]"
        },
        {
          "name": "",
          "type": "bytes32[]"
        },
        {
          "name": "",
          "type": "bytes32[]"
        },
        {
          "name": "",
          "type": "bytes32[]"
        },
        {
          "name": "",
          "type": "address[]"
        },
        {
          "name": "",
          "type": "uint256[]"
        }
      ],
      "payable": false,
      "stateMutability": "view",
      "type": "function"
    },
    {
      "constant": true,
      "inputs": [
        {
          "name": "_hash",
          "type": "bytes32"
        }
      ],
      "name": "getOwner",
      "outputs": [
        {
          "name": "",
          "type": "address"
        }
      ],
      "payable": false,
      "stateMutability": "view",
      "type": "function"
    }
  ],
  "bytecode": "0x6060604052341561000f57600080fd5b612ffb8061001e6000396000f30060606040526004361061008e576000357c0100000000000000000000000000000000000000000000000000000000900463ffffffff1680630bea8985146100935780632ac7842f146100ba5780634da274fd146100e1578063633d83dd1461013e5780638314d1e114610310578063deb931a21461052a578063dec4b4b814610591578063f41847a4146105ad575b600080fd5b341561009e57600080fd5b6100b86004808035600019169060200190919050506105fc565b005b34156100c557600080fd5b6100df600480803560001916906020019091905050610998565b005b34156100ec57600080fd5b6101206004808035600019169060200190919080356000191690602001909190803560001916906020019091905050610eaa565b60405180826000191660001916815260200191505060405180910390f35b341561014957600080fd5b6101516113d7565b6040518080602001806020018060200180602001806020018060200187810387528d818151815260200191508051906020019060200280838360005b838110156101a857808201518184015260208101905061018d565b5050505090500187810386528c818151815260200191508051906020019060200280838360005b838110156101ea5780820151818401526020810190506101cf565b5050505090500187810385528b818151815260200191508051906020019060200280838360005b8381101561022c578082015181840152602081019050610211565b5050505090500187810384528a818151815260200191508051906020019060200280838360005b8381101561026e578082015181840152602081019050610253565b50505050905001878103835289818151815260200191508051906020019060200280838360005b838110156102b0578082015181840152602081019050610295565b50505050905001878103825288818151815260200191508051906020019060200280838360005b838110156102f25780820151818401526020810190506102d7565b505050509050019c5050505050505050505050505060405180910390f35b341561031b57600080fd5b610323611b06565b604051808060200180602001806020018060200180602001806020018060200188810388528f818151815260200191508051906020019060200280838360005b8381101561037e578082015181840152602081019050610363565b5050505090500188810387528e818151815260200191508051906020019060200280838360005b838110156103c05780820151818401526020810190506103a5565b5050505090500188810386528d818151815260200191508051906020019060200280838360005b838110156104025780820151818401526020810190506103e7565b5050505090500188810385528c818151815260200191508051906020019060200280838360005b83811015610444578082015181840152602081019050610429565b5050505090500188810384528b818151815260200191508051906020019060200280838360005b8381101561048657808201518184015260208101905061046b565b5050505090500188810383528a818151815260200191508051906020019060200280838360005b838110156104c85780820151818401526020810190506104ad565b50505050905001888103825289818151815260200191508051906020019060200280838360005b8381101561050a5780820151818401526020810190506104ef565b505050509050019e50505050505050505050505050505060405180910390f35b341561053557600080fd5b61054f60048080356000191690602001909190505061205d565b604051808273ffffffffffffffffffffffffffffffffffffffff1673ffffffffffffffffffffffffffffffffffffffff16815260200191505060405180910390f35b6105ab6004808035600019169060200190919050506120a2565b005b34156105b857600080fd5b6105fa60048080356000191690602001909190803590602001909190803573ffffffffffffffffffffffffffffffffffffffff169060200190919050506127ad565b005b8060006001600083600019166000191681526020019081526020016000205481548110151561062757fe5b906000526020600020906007020160040160009054906101000a900473ffffffffffffffffffffffffffffffffffffffff1673ffffffffffffffffffffffffffffffffffffffff163373ffffffffffffffffffffffffffffffffffffffff1614151561069257600080fd5b6001600281111561069f57fe5b6000600160008560001916600019168152602001908152602001600020548154811015156106c957fe5b906000526020600020906007020160040160149054906101000a900460ff1660028111156106f357fe5b1415156106ff57600080fd5b61070882612d6c565b7f8c88b50842ef29fa4f175008326ffba0c2ad39d1cd589a7d4b5a2aeaedd70f4460006001600085600019166000191681526020019081526020016000205481548110151561075357fe5b906000526020600020906007020160000160009054906101000a900473ffffffffffffffffffffffffffffffffffffffff166000600160008660001916600019168152602001908152602001600020548154811015156107af57fe5b9060005260206000209060070201600101546000600160008760001916600019168152602001908152602001600020548154811015156107eb57fe5b90600052602060002090600702016002015460006001600088600019166000191681526020019081526020016000205481548110151561082757fe5b90600052602060002090600702016003015460006001600089600019166000191681526020019081526020016000205481548110151561086357fe5b906000526020600020906007020160040160009054906101000a900473ffffffffffffffffffffffffffffffffffffffff166000600160008a60001916600019168152602001908152602001600020548154811015156108bf57fe5b906000526020600020906007020160040160149054906101000a900460ff16604051808773ffffffffffffffffffffffffffffffffffffffff1673ffffffffffffffffffffffffffffffffffffffff1681526020018660001916600019168152602001856000191660001916815260200184600019166000191681526020018373ffffffffffffffffffffffffffffffffffffffff1673ffffffffffffffffffffffffffffffffffffffff16815260200182600281111561097c57fe5b60ff168152602001965050505050505060405180910390a15050565b600080826000600160008360001916600019168152602001908152602001600020548154811015156109c657fe5b906000526020600020906007020160040160009054906101000a900473ffffffffffffffffffffffffffffffffffffffff1673ffffffffffffffffffffffffffffffffffffffff163373ffffffffffffffffffffffffffffffffffffffff16141515610a3157600080fd5b600280811115610a3d57fe5b600060016000876000191660001916815260200190815260200160002054815481101515610a6757fe5b906000526020600020906007020160040160149054906101000a900460ff166002811115610a9157fe5b141515610a9d57600080fd5b600060016000866000191660001916815260200190815260200160002054815481101515610ac757fe5b906000526020600020906007020160040160009054906101000a900473ffffffffffffffffffffffffffffffffffffffff169250600060016000866000191660001916815260200190815260200160002054815481101515610b2557fe5b906000526020600020906007020160050160009054906101000a900473ffffffffffffffffffffffffffffffffffffffff16915081600060016000876000191660001916815260200190815260200160002054815481101515610b8457fe5b906000526020600020906007020160040160006101000a81548173ffffffffffffffffffffffffffffffffffffffff021916908373ffffffffffffffffffffffffffffffffffffffff160217905550610bdc84612d6c565b7f6760fc811ad0aa0cc201d67df78048fabaffbbc5466420648282c407fbf9182442600060016000886000191660001916815260200190815260200160002054815481101515610c2857fe5b906000526020600020906007020160000160009054906101000a900473ffffffffffffffffffffffffffffffffffffffff16600060016000896000191660001916815260200190815260200160002054815481101515610c8457fe5b9060005260206000209060070201600101546000600160008a6000191660001916815260200190815260200160002054815481101515610cc057fe5b9060005260206000209060070201600201546000600160008b6000191660001916815260200190815260200160002054815481101515610cfc57fe5b9060005260206000209060070201600301546000600160008c6000191660001916815260200190815260200160002054815481101515610d3857fe5b906000526020600020906007020160040160009054906101000a900473ffffffffffffffffffffffffffffffffffffffff166000600160008d6000191660001916815260200190815260200160002054815481101515610d9457fe5b906000526020600020906007020160040160149054906101000a900460ff168a604051808981526020018873ffffffffffffffffffffffffffffffffffffffff1673ffffffffffffffffffffffffffffffffffffffff1681526020018760001916600019168152602001866000191660001916815260200185600019166000191681526020018473ffffffffffffffffffffffffffffffffffffffff1673ffffffffffffffffffffffffffffffffffffffff168152602001836002811115610e5857fe5b60ff1681526020018273ffffffffffffffffffffffffffffffffffffffff1673ffffffffffffffffffffffffffffffffffffffff1681526020019850505050505050505060405180910390a150505050565b600080600080549050905060008054806001018281610ec99190612e85565b91600052602060002090600702016000610100604051908101604052803373ffffffffffffffffffffffffffffffffffffffff1681526020018960001916815260200188600019168152602001876000191681526020013373ffffffffffffffffffffffffffffffffffffffff16815260200160006002811115610f4957fe5b8152602001600073ffffffffffffffffffffffffffffffffffffffff1681526020016000815250909190915060008201518160000160006101000a81548173ffffffffffffffffffffffffffffffffffffffff021916908373ffffffffffffffffffffffffffffffffffffffff16021790555060208201518160010190600019169055604082015181600201906000191690556060820151816003019060001916905560808201518160040160006101000a81548173ffffffffffffffffffffffffffffffffffffffff021916908373ffffffffffffffffffffffffffffffffffffffff16021790555060a08201518160040160146101000a81548160ff0219169083600281111561105757fe5b021790555060c08201518160050160006101000a81548173ffffffffffffffffffffffffffffffffffffffff021916908373ffffffffffffffffffffffffffffffffffffffff16021790555060e08201518160060155505050600181016000805490501415156110c657600080fd5b80600160008560001916600019168152602001908152602001600020819055503360026000856000191660001916815260200190815260200160002060006101000a81548173ffffffffffffffffffffffffffffffffffffffff021916908373ffffffffffffffffffffffffffffffffffffffff1602179055507fcf1a99552eea5f1b51b6d8125c0c9c8a2bba03cc944af94829a8feda944bfb2960006001600086600019166000191681526020019081526020016000205481548110151561118b57fe5b906000526020600020906007020160000160009054906101000a900473ffffffffffffffffffffffffffffffffffffffff166000600160008760001916600019168152602001908152602001600020548154811015156111e757fe5b90600052602060002090600702016001015460006001600088600019166000191681526020019081526020016000205481548110151561122357fe5b90600052602060002090600702016002015460006001600089600019166000191681526020019081526020016000205481548110151561125f57fe5b9060005260206000209060070201600301546000600160008a600019166000191681526020019081526020016000205481548110151561129b57fe5b906000526020600020906007020160040160009054906101000a900473ffffffffffffffffffffffffffffffffffffffff166000600160008b60001916600019168152602001908152602001600020548154811015156112f757fe5b906000526020600020906007020160040160149054906101000a900460ff16604051808773ffffffffffffffffffffffffffffffffffffffff1673ffffffffffffffffffffffffffffffffffffffff1681526020018660001916600019168152602001856000191660001916815260200184600019166000191681526020018373ffffffffffffffffffffffffffffffffffffffff1673ffffffffffffffffffffffffffffffffffffffff1681526020018260028111156113b457fe5b60ff168152602001965050505050505060405180910390a1829150509392505050565b6113df612eb7565b6113e7612ecb565b6113ef612ecb565b6113f7612ecb565b6113ff612eb7565b611407612edf565b600080611412612eb7565b61141a612ecb565b611422612ecb565b61142a612ecb565b611432612eb7565b61143a612edf565b60009750600096505b600080549050871015611618576001600281111561145d57fe5b60008881548110151561146c57fe5b906000526020600020906007020160040160149054906101000a900460ff16600281111561149657fe5b14801561150f57503373ffffffffffffffffffffffffffffffffffffffff166000888154811015156114c457fe5b906000526020600020906007020160040160009054906101000a900473ffffffffffffffffffffffffffffffffffffffff1673ffffffffffffffffffffffffffffffffffffffff1614155b80156115fd5750600073ffffffffffffffffffffffffffffffffffffffff1660008881548110151561153d57fe5b906000526020600020906007020160050160009054906101000a900473ffffffffffffffffffffffffffffffffffffffff1673ffffffffffffffffffffffffffffffffffffffff1614806115fc57503373ffffffffffffffffffffffffffffffffffffffff166000888154811015156115b257fe5b906000526020600020906007020160050160009054906101000a900473ffffffffffffffffffffffffffffffffffffffff1673ffffffffffffffffffffffffffffffffffffffff16145b5b1561160b5787806001019850505b8680600101975050611443565b876040518059106116265750595b90808252806020026020018201604052509550876040518059106116475750595b90808252806020026020018201604052509450876040518059106116685750595b90808252806020026020018201604052509350876040518059106116895750595b90808252806020026020018201604052509250876040518059106116aa5750595b90808252806020026020018201604052509150876040518059106116cb5750595b9080825280602002602001820160405250905060009750600096505b600080549050871015611ae4576001600281111561170157fe5b60008881548110151561171057fe5b906000526020600020906007020160040160149054906101000a900460ff16600281111561173a57fe5b1480156117b357503373ffffffffffffffffffffffffffffffffffffffff1660008881548110151561176857fe5b906000526020600020906007020160040160009054906101000a900473ffffffffffffffffffffffffffffffffffffffff1673ffffffffffffffffffffffffffffffffffffffff1614155b80156118a15750600073ffffffffffffffffffffffffffffffffffffffff166000888154811015156117e157fe5b906000526020600020906007020160050160009054906101000a900473ffffffffffffffffffffffffffffffffffffffff1673ffffffffffffffffffffffffffffffffffffffff1614806118a057503373ffffffffffffffffffffffffffffffffffffffff1660008881548110151561185657fe5b906000526020600020906007020160050160009054906101000a900473ffffffffffffffffffffffffffffffffffffffff1673ffffffffffffffffffffffffffffffffffffffff16145b5b15611ad7576000878154811015156118b557fe5b906000526020600020906007020160000160009054906101000a900473ffffffffffffffffffffffffffffffffffffffff1686898151811015156118f557fe5b9060200190602002019073ffffffffffffffffffffffffffffffffffffffff16908173ffffffffffffffffffffffffffffffffffffffff168152505060008781548110151561194057fe5b906000526020600020906007020160010154858981518110151561196057fe5b90602001906020020190600019169081600019168152505060008781548110151561198757fe5b90600052602060002090600702016002015484898151811015156119a757fe5b9060200190602002019060001916908160001916815250506000878154811015156119ce57fe5b90600052602060002090600702016003015483898151811015156119ee57fe5b906020019060200201906000191690816000191681525050600087815481101515611a1557fe5b906000526020600020906007020160040160009054906101000a900473ffffffffffffffffffffffffffffffffffffffff168289815181101515611a5557fe5b9060200190602002019073ffffffffffffffffffffffffffffffffffffffff16908173ffffffffffffffffffffffffffffffffffffffff1681525050600087815481101515611aa057fe5b9060005260206000209060070201600601548189815181101515611ac057fe5b906020019060200201818152505087806001019850505b86806001019750506116e7565b8585858585859d509d509d509d509d509d505050505050505050909192939495565b611b0e612eb7565b611b16612ecb565b611b1e612ecb565b611b26612ecb565b611b2e612ef3565b611b36612eb7565b611b3e612edf565b600080611b49612eb7565b611b51612ecb565b611b59612ecb565b611b61612ecb565b611b69612ef3565b611b71612eb7565b611b79612edf565b60009850600097505b600080549050881015611c19573373ffffffffffffffffffffffffffffffffffffffff16600089815481101515611bb557fe5b906000526020600020906007020160040160009054906101000a900473ffffffffffffffffffffffffffffffffffffffff1673ffffffffffffffffffffffffffffffffffffffff161415611c0c5788806001019950505b8780600101985050611b82565b88604051805910611c275750595b9080825280602002602001820160405250965088604051805910611c485750595b9080825280602002602001820160405250955088604051805910611c695750595b9080825280602002602001820160405250945088604051805910611c8a5750595b9080825280602002602001820160405250935088604051805910611cab5750595b9080825280602002602001820160405250925088604051805910611ccc5750595b9080825280602002602001820160405250915088604051805910611ced5750595b9080825280602002602001820160405250905060009850600097505b60008054905088108015611d1d5750835189105b15612036573373ffffffffffffffffffffffffffffffffffffffff16600089815481101515611d4857fe5b906000526020600020906007020160040160009054906101000a900473ffffffffffffffffffffffffffffffffffffffff1673ffffffffffffffffffffffffffffffffffffffff16141561202957600088815481101515611da557fe5b906000526020600020906007020160000160009054906101000a900473ffffffffffffffffffffffffffffffffffffffff16878a815181101515611de557fe5b9060200190602002019073ffffffffffffffffffffffffffffffffffffffff16908173ffffffffffffffffffffffffffffffffffffffff1681525050600088815481101515611e3057fe5b906000526020600020906007020160010154868a815181101515611e5057fe5b906020019060200201906000191690816000191681525050600088815481101515611e7757fe5b906000526020600020906007020160020154858a815181101515611e9757fe5b906020019060200201906000191690816000191681525050600088815481101515611ebe57fe5b906000526020600020906007020160030154848a815181101515611ede57fe5b906020019060200201906000191690816000191681525050600088815481101515611f0557fe5b906000526020600020906007020160040160149054906101000a900460ff16838a815181101515611f3257fe5b906020019060200201906002811115611f4757fe5b90816002811115611f5457fe5b81525050600088815481101515611f6757fe5b906000526020600020906007020160050160009054906101000a900473ffffffffffffffffffffffffffffffffffffffff16828a815181101515611fa757fe5b9060200190602002019073ffffffffffffffffffffffffffffffffffffffff16908173ffffffffffffffffffffffffffffffffffffffff1681525050600088815481101515611ff257fe5b906000526020600020906007020160060154818a81518110151561201257fe5b906020019060200201818152505088806001019950505b8780600101985050611d09565b868686868686869f509f509f509f509f509f509f5050505050505050505090919293949596565b600060026000836000191660001916815260200190815260200160002060009054906101000a900473ffffffffffffffffffffffffffffffffffffffff169050919050565b600160028111156120af57fe5b6000600160008460001916600019168152602001908152602001600020548154811015156120d957fe5b906000526020600020906007020160040160149054906101000a900460ff16600281111561210357fe5b14151561210f57600080fd5b60006001600083600019166000191681526020019081526020016000205481548110151561213957fe5b906000526020600020906007020160040160009054906101000a900473ffffffffffffffffffffffffffffffffffffffff1673ffffffffffffffffffffffffffffffffffffffff163373ffffffffffffffffffffffffffffffffffffffff16141515156121a557600080fd5b6000600160008360001916600019168152602001908152602001600020548154811015156121cf57fe5b906000526020600020906007020160050160009054906101000a900473ffffffffffffffffffffffffffffffffffffffff1673ffffffffffffffffffffffffffffffffffffffff163373ffffffffffffffffffffffffffffffffffffffff1614806122c15750600073ffffffffffffffffffffffffffffffffffffffff1660006001600084600019166000191681526020019081526020016000205481548110151561227757fe5b906000526020600020906007020160050160009054906101000a900473ffffffffffffffffffffffffffffffffffffffff1673ffffffffffffffffffffffffffffffffffffffff16145b15156122cc57600080fd5b6000600160008360001916600019168152602001908152602001600020548154811015156122f657fe5b9060005260206000209060070201600601543414151561231557600080fd5b600260006001600084600019166000191681526020019081526020016000205481548110151561234157fe5b906000526020600020906007020160040160146101000a81548160ff0219169083600281111561236d57fe5b02179055503360006001600084600019166000191681526020019081526020016000205481548110151561239d57fe5b906000526020600020906007020160050160006101000a81548173ffffffffffffffffffffffffffffffffffffffff021916908373ffffffffffffffffffffffffffffffffffffffff16021790555060006001600083600019166000191681526020019081526020016000205481548110151561241657fe5b906000526020600020906007020160040160009054906101000a900473ffffffffffffffffffffffffffffffffffffffff1673ffffffffffffffffffffffffffffffffffffffff166108fc349081150290604051600060405180830381858888f19350505050151561248757600080fd5b7fa883835162e7ed75cbc796fc02d78c72db0a39c0e036e879ab2305d575e59c09426000600160008560001916600019168152602001908152602001600020548154811015156124d357fe5b906000526020600020906007020160000160009054906101000a900473ffffffffffffffffffffffffffffffffffffffff1660006001600086600019166000191681526020019081526020016000205481548110151561252f57fe5b90600052602060002090600702016001015460006001600087600019166000191681526020019081526020016000205481548110151561256b57fe5b9060005260206000209060070201600201546000600160008860001916600019168152602001908152602001600020548154811015156125a757fe5b9060005260206000209060070201600301546000600160008960001916600019168152602001908152602001600020548154811015156125e357fe5b906000526020600020906007020160040160009054906101000a900473ffffffffffffffffffffffffffffffffffffffff166000600160008a600019166000191681526020019081526020016000205481548110151561263f57fe5b906000526020600020906007020160040160149054906101000a900460ff166000600160008b600019166000191681526020019081526020016000205481548110151561268857fe5b906000526020600020906007020160050160009054906101000a900473ffffffffffffffffffffffffffffffffffffffff16604051808981526020018873ffffffffffffffffffffffffffffffffffffffff1673ffffffffffffffffffffffffffffffffffffffff1681526020018760001916600019168152602001866000191660001916815260200185600019166000191681526020018473ffffffffffffffffffffffffffffffffffffffff1673ffffffffffffffffffffffffffffffffffffffff16815260200183600281111561275e57fe5b60ff1681526020018273ffffffffffffffffffffffffffffffffffffffff1673ffffffffffffffffffffffffffffffffffffffff1681526020019850505050505050505060405180910390a150565b826000600160008360001916600019168152602001908152602001600020548154811015156127d857fe5b906000526020600020906007020160040160009054906101000a900473ffffffffffffffffffffffffffffffffffffffff1673ffffffffffffffffffffffffffffffffffffffff163373ffffffffffffffffffffffffffffffffffffffff1614151561284357600080fd5b836000600281111561285157fe5b60006001600084600019166000191681526020019081526020016000205481548110151561287b57fe5b906000526020600020906007020160040160149054906101000a900460ff1660028111156128a557fe5b1415156128b157600080fd5b3073ffffffffffffffffffffffffffffffffffffffff168373ffffffffffffffffffffffffffffffffffffffff1614158015612974575060006001600087600019166000191681526020019081526020016000205481548110151561291257fe5b906000526020600020906007020160040160009054906101000a900473ffffffffffffffffffffffffffffffffffffffff1673ffffffffffffffffffffffffffffffffffffffff168373ffffffffffffffffffffffffffffffffffffffff1614155b151561297f57600080fd5b60016000600160008860001916600019168152602001908152602001600020548154811015156129ab57fe5b906000526020600020906007020160040160146101000a81548160ff021916908360028111156129d757fe5b021790555082600060016000886000191660001916815260200190815260200160002054815481101515612a0757fe5b906000526020600020906007020160050160006101000a81548173ffffffffffffffffffffffffffffffffffffffff021916908373ffffffffffffffffffffffffffffffffffffffff16021790555083600060016000886000191660001916815260200190815260200160002054815481101515612a8157fe5b9060005260206000209060070201600601819055507f53c039b378ed53f2afc8740d14ba1883ba999fd1e8481ced4efa78fd85b8b974600060016000886000191660001916815260200190815260200160002054815481101515612ae157fe5b906000526020600020906007020160000160009054906101000a900473ffffffffffffffffffffffffffffffffffffffff16600060016000896000191660001916815260200190815260200160002054815481101515612b3d57fe5b9060005260206000209060070201600101546000600160008a6000191660001916815260200190815260200160002054815481101515612b7957fe5b9060005260206000209060070201600201546000600160008b6000191660001916815260200190815260200160002054815481101515612bb557fe5b9060005260206000209060070201600301546000600160008c6000191660001916815260200190815260200160002054815481101515612bf157fe5b906000526020600020906007020160040160009054906101000a900473ffffffffffffffffffffffffffffffffffffffff166000600160008d6000191660001916815260200190815260200160002054815481101515612c4d57fe5b906000526020600020906007020160040160149054906101000a900460ff166000600160008e6000191660001916815260200190815260200160002054815481101515612c9657fe5b906000526020600020906007020160060154604051808873ffffffffffffffffffffffffffffffffffffffff1673ffffffffffffffffffffffffffffffffffffffff1681526020018760001916600019168152602001866000191660001916815260200185600019166000191681526020018473ffffffffffffffffffffffffffffffffffffffff1673ffffffffffffffffffffffffffffffffffffffff168152602001836002811115612d4657fe5b60ff16815260200182815260200197505050505050505060405180910390a15050505050565b60008060016000846000191660001916815260200190815260200160002054815481101515612d9757fe5b906000526020600020906007020160040160146101000a81548160ff02191690836002811115612dc357fe5b021790555060008060016000846000191660001916815260200190815260200160002054815481101515612df357fe5b906000526020600020906007020160050160006101000a81548173ffffffffffffffffffffffffffffffffffffffff021916908373ffffffffffffffffffffffffffffffffffffffff16021790555060008060016000846000191660001916815260200190815260200160002054815481101515612e6d57fe5b90600052602060002090600702016006018190555050565b815481835581811511612eb257600702816007028360005260206000209182019101612eb19190612f07565b5b505050565b602060405190810160405280600081525090565b602060405190810160405280600081525090565b602060405190810160405280600081525090565b602060405190810160405280600081525090565b612fcc91905b80821115612fc857600080820160006101000a81549073ffffffffffffffffffffffffffffffffffffffff02191690556001820160009055600282016000905560038201600090556004820160006101000a81549073ffffffffffffffffffffffffffffffffffffffff02191690556004820160146101000a81549060ff02191690556005820160006101000a81549073ffffffffffffffffffffffffffffffffffffffff0219169055600682016000905550600701612f0d565b5090565b905600a165627a7a7230582038286fdacb9aba3b31351c6422a7bd65e1d122e38246dbb8f69edba4ae0495870029",
  "source": "pragma solidity ^0.4.19;\r\n\r\n/**\r\n * Property Store\r\n * @author Jiangsha Liu\r\n */\r\ncontract Properties {\r\n    enum SaleStatus {OnHold, OnSale, Offered}\r\n\r\n    struct Property {\r\n        // The creator of this property\r\n        address creator;\r\n        \r\n        // Name of this property\r\n        bytes32 name;\r\n        \r\n        // Long description of this property\r\n        bytes32 desc;\r\n        \r\n        // ID of this property\r\n        bytes32 id;\r\n        \r\n        // The owner of the property\r\n        address owner;\r\n        \r\n        // Current sale status\r\n        SaleStatus saleStatus;\r\n        \r\n        // Who is the selected buyer, if any.\r\n        // Optional\r\n        address sellingTo;\r\n        \r\n        // How much ether (wei) the seller has asked the buyer to send\r\n        uint256 askingPrice;\r\n    }\r\n    \r\n    // All properties listed\r\n    Property[] private properties;\r\n    \r\n    // mapping between property index and id\r\n    mapping(bytes32=>uint256) private propertyIndexMap;\r\n\r\n    // mapping between property hash and user\r\n    mapping(bytes32=>address) private propertyOwnerMap;\r\n    \r\n    //\r\n    // Modifiers\r\n    // \r\n    \r\n    // Makes functions require the called to be the owner of the contract\r\n    modifier onlyOwner(bytes32 _propertyId) {\r\n        require(msg.sender == properties[propertyIndexMap[_propertyId]].owner);\r\n        _;\r\n    }\r\n    \r\n    // Add to functions that the owner wants to prevent being called while the\r\n    // contract is for sale or offered.\r\n    modifier ifOnHold(bytes32 _propertyId) {\r\n        require(properties[propertyIndexMap[_propertyId]].saleStatus == SaleStatus.OnHold);\r\n        _;\r\n    }   \r\n\r\n    event Register(address _creator, bytes32 _name, bytes32 _desc, bytes32 _id, address _owner, SaleStatus _saleStatus);\r\n    event Sell(address _creator, bytes32 _name, bytes32 _desc, bytes32 _id, address _owner, SaleStatus _saleStatus, uint256 _askingPrice);\r\n    event CancelSell(address _creator, bytes32 _name, bytes32 _desc, bytes32 _id, address _owner, SaleStatus _saleStatus);\r\n    event Offer(uint256 _offerDate, address _creator, bytes32 _name, bytes32 _desc, bytes32 _id, address _owner, SaleStatus _saleStatus, address _sellingTo); \r\n    event Transfer(uint256 _transferDate, address _creator, bytes32 _name, bytes32 _desc, bytes32 _id, address _owner, SaleStatus _saleStatus, address _from);\r\n\r\n    /**\r\n     * @param _name is name of property\r\n     * @param _desc is long description of property\r\n     * @param _hash is hash string generated from content\r\n     * \r\n     * id (timestamp of creation for now) of registered property is returned\r\n     */\r\n    function register(bytes32 _name, bytes32 _desc, bytes32 _hash) public returns (bytes32) {\r\n        uint256 currentSize = properties.length;\r\n\r\n        properties.push(Property({\r\n            creator: msg.sender, \r\n            name: _name, \r\n            desc: _desc, \r\n            id: _hash, \r\n            owner: msg.sender, \r\n            saleStatus: SaleStatus.OnHold, \r\n            sellingTo: address(0),\r\n            askingPrice: 0\r\n        }));\r\n        \r\n        require(properties.length == currentSize + 1);\r\n\r\n        propertyIndexMap[_hash] = currentSize;\r\n\r\n        propertyOwnerMap[_hash] = msg.sender;\r\n        \r\n        emit Register(properties[propertyIndexMap[_hash]].creator, properties[propertyIndexMap[_hash]].name, properties[propertyIndexMap[_hash]].desc, properties[propertyIndexMap[_hash]].id, properties[propertyIndexMap[_hash]].owner, properties[propertyIndexMap[_hash]].saleStatus);\r\n\r\n        return _hash;\r\n    }\r\n    \r\n    /**\r\n     * initiateSale is called by the owner of the property to start\r\n     * the sale process.\r\n     * @param _propertyId is id of property returned in function \"register\"\r\n     * @param _price is the asking price for the sale\r\n     * @param _to (OPTIONAL) is the address of the person that the owner\r\n     * wants to sell the contract to. If set to 0x0, anyone can buy it.\r\n     */\r\n    function initiateSale(bytes32 _propertyId, uint256 _price, address _to) onlyOwner(_propertyId) ifOnHold(_propertyId) public {\r\n        require(_to != address(this) && _to != properties[propertyIndexMap[_propertyId]].owner);\r\n        \r\n        properties[propertyIndexMap[_propertyId]].saleStatus = SaleStatus.OnSale;\r\n        \r\n        // Set the target buyer, if specified.\r\n        properties[propertyIndexMap[_propertyId]].sellingTo = _to;\r\n        \r\n        properties[propertyIndexMap[_propertyId]].askingPrice = _price;\r\n\r\n        emit Sell(properties[propertyIndexMap[_propertyId]].creator, properties[propertyIndexMap[_propertyId]].name, properties[propertyIndexMap[_propertyId]].desc, properties[propertyIndexMap[_propertyId]].id, properties[propertyIndexMap[_propertyId]].owner, properties[propertyIndexMap[_propertyId]].saleStatus, properties[propertyIndexMap[_propertyId]].askingPrice);\r\n    }\r\n    \r\n    /**\r\n     * cancelSale allows the owner to cancel the sale before someone buys\r\n     * the contract.\r\n     */\r\n    function cancelSale(bytes32 _propertyId) onlyOwner(_propertyId) public {\r\n        require(properties[propertyIndexMap[_propertyId]].saleStatus == SaleStatus.OnSale);\r\n        \r\n        // Reset sale variables\r\n        resetSale(_propertyId);\r\n\r\n        emit CancelSell(properties[propertyIndexMap[_propertyId]].creator, properties[propertyIndexMap[_propertyId]].name, properties[propertyIndexMap[_propertyId]].desc, properties[propertyIndexMap[_propertyId]].id, properties[propertyIndexMap[_propertyId]].owner, properties[propertyIndexMap[_propertyId]].saleStatus);\r\n    }\r\n    \r\n    /** \r\n     * offer is called buy the specified buyer (or anyone if sellingTo)\r\n     * was not set, to make the purchase.\r\n     */\r\n    function offer(bytes32 _propertyId) public payable {\r\n        require(properties[propertyIndexMap[_propertyId]].saleStatus == SaleStatus.OnSale);\r\n        require(msg.sender != properties[propertyIndexMap[_propertyId]].owner);\r\n        require(msg.sender == properties[propertyIndexMap[_propertyId]].sellingTo || properties[propertyIndexMap[_propertyId]].sellingTo == address(0));\r\n        require(msg.value == properties[propertyIndexMap[_propertyId]].askingPrice);\r\n        \r\n        properties[propertyIndexMap[_propertyId]].saleStatus = SaleStatus.Offered;\r\n        properties[propertyIndexMap[_propertyId]].sellingTo = msg.sender;\r\n        \r\n        properties[propertyIndexMap[_propertyId]].owner.transfer(msg.value);\r\n        \r\n        emit Offer(now,properties[propertyIndexMap[_propertyId]].creator, properties[propertyIndexMap[_propertyId]].name, properties[propertyIndexMap[_propertyId]].desc, properties[propertyIndexMap[_propertyId]].id, properties[propertyIndexMap[_propertyId]].owner, properties[propertyIndexMap[_propertyId]].saleStatus, properties[propertyIndexMap[_propertyId]].sellingTo);\r\n    }\r\n\r\n    /** \r\n     * completeSale is called buy the owner to complete.\r\n     */\r\n    function completeSale(bytes32 _propertyId) onlyOwner(_propertyId) public {\r\n        require(properties[propertyIndexMap[_propertyId]].saleStatus == SaleStatus.Offered);\r\n        \r\n        // Swap ownership\r\n        address prevOwner = properties[propertyIndexMap[_propertyId]].owner;\r\n        address newOwner = properties[propertyIndexMap[_propertyId]].sellingTo;\r\n        properties[propertyIndexMap[_propertyId]].owner = newOwner;\r\n        \r\n        // Transaction cleanup\r\n        resetSale(_propertyId);\r\n        \r\n        emit Transfer(now,properties[propertyIndexMap[_propertyId]].creator, properties[propertyIndexMap[_propertyId]].name, properties[propertyIndexMap[_propertyId]].desc, properties[propertyIndexMap[_propertyId]].id, properties[propertyIndexMap[_propertyId]].owner, properties[propertyIndexMap[_propertyId]].saleStatus, prevOwner);\r\n    }\r\n\r\n    /**\r\n     * \r\n     * return all properties owned by msg.sender, including those created/registered by msg.sender.\r\n     * \r\n     * \r\n     */\r\n    function listAllMyProperties() public view returns(address[], bytes32[], bytes32[], bytes32[], SaleStatus[], address[], uint256[]) {\r\n        uint256 count = 0;\r\n        for (uint256 i = 0; i < properties.length; i++) {\r\n            if (properties[i].owner == msg.sender) {\r\n                count++;\r\n            }\r\n        }\r\n        \r\n        address[] memory _creator = new address[](count);\r\n        bytes32[] memory _name = new bytes32[](count);\r\n        bytes32[] memory _desc = new bytes32[](count);\r\n        bytes32[] memory _id = new bytes32[](count);\r\n        SaleStatus[] memory _saleStatus = new SaleStatus[](count);\r\n        address[] memory _sellingTo = new address[](count);\r\n        uint256[] memory _askingPrice = new uint256[](count);\r\n\r\n        count = 0;\r\n        for (i = 0; i < properties.length && count < _id.length; i++) {\r\n            if (properties[i].owner == msg.sender) {\r\n                _creator[count] = properties[i].creator;\r\n                _name[count] = properties[i].name;\r\n                _desc[count] = properties[i].desc;\r\n                _id[count] = properties[i].id;\r\n                _saleStatus[count] = properties[i].saleStatus;\r\n                _sellingTo[count] = properties[i].sellingTo;\r\n                _askingPrice[count] = properties[i].askingPrice;\r\n\r\n                count++;\r\n            }\r\n        }\r\n        \r\n        return (_creator, _name, _desc, _id, _saleStatus, _sellingTo, _askingPrice);\r\n    }\r\n\r\n \r\n\r\n    /**\r\n     * \r\n     * return all properties could be bought by msg.sender.\r\n     * \r\n     * \r\n     */\r\n    function listAllBuyableProperties() public view returns(address[], bytes32[], bytes32[], bytes32[], address[], uint256[]){\r\n        uint256 count = 0;\r\n        for (uint256 i = 0; i < properties.length; i++) {\r\n            if (properties[i].saleStatus == SaleStatus.OnSale && properties[i].owner != msg.sender && (properties[i].sellingTo == address(0) || properties[i].sellingTo == msg.sender)) {\r\n                count++;\r\n            }\r\n        }\r\n        \r\n        address[] memory _creator = new address[](count);\r\n        bytes32[] memory _name = new bytes32[](count);\r\n        bytes32[] memory _desc = new bytes32[](count);\r\n        bytes32[] memory _id = new bytes32[](count);\r\n        address[] memory _owner = new address[](count);\r\n        uint256[] memory _askingPrice = new uint256[](count);\r\n\r\n        count = 0;\r\n        for (i = 0; i < properties.length; i++) {\r\n            if (properties[i].saleStatus == SaleStatus.OnSale && properties[i].owner != msg.sender && (properties[i].sellingTo == address(0) || properties[i].sellingTo == msg.sender)) {\r\n                _creator[count] = properties[i].creator;\r\n                _name[count] = properties[i].name;\r\n                _desc[count] = properties[i].desc;\r\n                _id[count] = properties[i].id;\r\n                _owner[count] = properties[i].owner;\r\n                _askingPrice[count] = properties[i].askingPrice;\r\n                \r\n                count++;\r\n            }\r\n        }\r\n        \r\n        return (_creator, _name, _desc, _id, _owner, _askingPrice);        \r\n    }\r\n\r\n    /****\r\n    * get owner of this hash string generated from property content\r\n    */\r\n    function getOwner(bytes32 _hash) public view returns(address) {\r\n        return propertyOwnerMap[_hash];\r\n    }\r\n    \r\n    //\r\n    // Internal functions\r\n    //\r\n    \r\n    /**\r\n     * resets the variables related to a sale process\r\n     */\r\n    function resetSale(bytes32 _propertyId) internal {\r\n        properties[propertyIndexMap[_propertyId]].saleStatus = SaleStatus.OnHold;\r\n        properties[propertyIndexMap[_propertyId]].sellingTo = address(0);\r\n        properties[propertyIndexMap[_propertyId]].askingPrice = 0;\r\n    }\r\n}",
  "sourcePath": "C:\\workspace\\git\\PropertyStore_Ethereum\\contracts\\Properties.sol",
  "compiler": {
    "name": "solc",
    "version": "0.4.21+commit.dfe3193c.Emscripten.clang"
  },
  "schemaVersion": "2.0.0",
  "updatedAt": "2018-04-02T09:16:41.560Z"
}