{
  "contractName": "Properties",
  "abi": [
    {
      "anonymous": false,
      "inputs": [
        {
          "indexed": false,
          "name": "_saleDate",
          "type": "uint256"
        },
        {
          "indexed": false,
          "name": "_from",
          "type": "address"
        },
        {
          "indexed": false,
          "name": "_to",
          "type": "address"
        },
        {
          "indexed": false,
          "name": "_salePrice",
          "type": "uint256"
        }
      ],
      "name": "Transfer",
      "type": "event"
    },
    {
      "constant": false,
      "inputs": [
        {
          "name": "_name",
          "type": "bytes32"
        },
        {
          "name": "_desc",
          "type": "bytes32"
        }
      ],
      "name": "register",
      "outputs": [
        {
          "name": "",
          "type": "uint256"
        }
      ],
      "payable": false,
      "stateMutability": "nonpayable",
      "type": "function"
    },
    {
      "constant": false,
      "inputs": [
        {
          "name": "_propertyId",
          "type": "uint256"
        },
        {
          "name": "_price",
          "type": "uint256"
        },
        {
          "name": "_to",
          "type": "address"
        }
      ],
      "name": "initiateSale",
      "outputs": [],
      "payable": false,
      "stateMutability": "nonpayable",
      "type": "function"
    },
    {
      "constant": false,
      "inputs": [
        {
          "name": "_propertyId",
          "type": "uint256"
        }
      ],
      "name": "cancelSale",
      "outputs": [],
      "payable": false,
      "stateMutability": "nonpayable",
      "type": "function"
    },
    {
      "constant": false,
      "inputs": [
        {
          "name": "_propertyId",
          "type": "uint256"
        }
      ],
      "name": "completeSale",
      "outputs": [],
      "payable": true,
      "stateMutability": "payable",
      "type": "function"
    },
    {
      "constant": true,
      "inputs": [],
      "name": "listAllMyProperties",
      "outputs": [
        {
          "name": "",
          "type": "address[]"
        },
        {
          "name": "",
          "type": "bytes32[]"
        },
        {
          "name": "",
          "type": "bytes32[]"
        },
        {
          "name": "",
          "type": "uint256[]"
        },
        {
          "name": "",
          "type": "bool[]"
        },
        {
          "name": "",
          "type": "address[]"
        },
        {
          "name": "",
          "type": "uint256[]"
        }
      ],
      "payable": false,
      "stateMutability": "view",
      "type": "function"
    },
    {
      "constant": true,
      "inputs": [],
      "name": "listAllBuyableProperties",
      "outputs": [
        {
          "name": "",
          "type": "address[]"
        },
        {
          "name": "",
          "type": "bytes32[]"
        },
        {
          "name": "",
          "type": "bytes32[]"
        },
        {
          "name": "",
          "type": "uint256[]"
        },
        {
          "name": "",
          "type": "address[]"
        },
        {
          "name": "",
          "type": "uint256[]"
        }
      ],
      "payable": false,
      "stateMutability": "view",
      "type": "function"
    }
  ],
  "bytecode": "0x6060604052341561000f57600080fd5b611d878061001e6000396000f300606060405260043610610078576000357c0100000000000000000000000000000000000000000000000000000000900463ffffffff16806305b17b091461007d5780632f926732146100c8578063633d83dd14610110578063750225d0146102e25780638314d1e1146102fa578063bd94b00514610514575b600080fd5b341561008857600080fd5b6100c6600480803590602001909190803590602001909190803573ffffffffffffffffffffffffffffffffffffffff16906020019091905050610537565b005b34156100d357600080fd5b6100fa600480803560001916906020019091908035600019169060200190919050506107d4565b6040518082815260200191505060405180910390f35b341561011b57600080fd5b6101236109e3565b6040518080602001806020018060200180602001806020018060200187810387528d818151815260200191508051906020019060200280838360005b8381101561017a57808201518184015260208101905061015f565b5050505090500187810386528c818151815260200191508051906020019060200280838360005b838110156101bc5780820151818401526020810190506101a1565b5050505090500187810385528b818151815260200191508051906020019060200280838360005b838110156101fe5780820151818401526020810190506101e3565b5050505090500187810384528a818151815260200191508051906020019060200280838360005b83811015610240578082015181840152602081019050610225565b50505050905001878103835289818151815260200191508051906020019060200280838360005b83811015610282578082015181840152602081019050610267565b50505050905001878103825288818151815260200191508051906020019060200280838360005b838110156102c45780820151818401526020810190506102a9565b505050509050019c5050505050505050505050505060405180910390f35b6102f860048080359060200190919050506110d6565b005b341561030557600080fd5b61030d611503565b604051808060200180602001806020018060200180602001806020018060200188810388528f818151815260200191508051906020019060200280838360005b8381101561036857808201518184015260208101905061034d565b5050505090500188810387528e818151815260200191508051906020019060200280838360005b838110156103aa57808201518184015260208101905061038f565b5050505090500188810386528d818151815260200191508051906020019060200280838360005b838110156103ec5780820151818401526020810190506103d1565b5050505090500188810385528c818151815260200191508051906020019060200280838360005b8381101561042e578082015181840152602081019050610413565b5050505090500188810384528b818151815260200191508051906020019060200280838360005b83811015610470578082015181840152602081019050610455565b5050505090500188810383528a818151815260200191508051906020019060200280838360005b838110156104b2578082015181840152602081019050610497565b50505050905001888103825289818151815260200191508051906020019060200280838360005b838110156104f45780820151818401526020810190506104d9565b505050509050019e50505050505050505050505050505060405180910390f35b341561051f57600080fd5b6105356004808035906020019091905050611a32565b005b826000600160008381526020019081526020016000205481548110151561055a57fe5b906000526020600020906007020160040160009054906101000a900473ffffffffffffffffffffffffffffffffffffffff1673ffffffffffffffffffffffffffffffffffffffff163373ffffffffffffffffffffffffffffffffffffffff161415156105c557600080fd5b3073ffffffffffffffffffffffffffffffffffffffff168273ffffffffffffffffffffffffffffffffffffffff161415801561068057506000600160008681526020019081526020016000205481548110151561061e57fe5b906000526020600020906007020160040160009054906101000a900473ffffffffffffffffffffffffffffffffffffffff1673ffffffffffffffffffffffffffffffffffffffff168273ffffffffffffffffffffffffffffffffffffffff1614155b151561068b57600080fd5b600060016000868152602001908152602001600020548154811015156106ad57fe5b906000526020600020906007020160040160149054906101000a900460ff161515156106d857600080fd5b6001600060016000878152602001908152602001600020548154811015156106fc57fe5b906000526020600020906007020160040160146101000a81548160ff021916908315150217905550816000600160008781526020019081526020016000205481548110151561074757fe5b906000526020600020906007020160050160006101000a81548173ffffffffffffffffffffffffffffffffffffffff021916908373ffffffffffffffffffffffffffffffffffffffff16021790555082600060016000878152602001908152602001600020548154811015156107b957fe5b90600052602060002090600702016006018190555050505050565b600080429050600080548060010182816107ee9190611c11565b91600052602060002090600702016000610100604051908101604052803373ffffffffffffffffffffffffffffffffffffffff16815260200188600019168152602001876000191681526020018581526020013373ffffffffffffffffffffffffffffffffffffffff168152602001600015158152602001600073ffffffffffffffffffffffffffffffffffffffff1681526020016000815250909190915060008201518160000160006101000a81548173ffffffffffffffffffffffffffffffffffffffff021916908373ffffffffffffffffffffffffffffffffffffffff16021790555060208201518160010190600019169055604082015181600201906000191690556060820151816003015560808201518160040160006101000a81548173ffffffffffffffffffffffffffffffffffffffff021916908373ffffffffffffffffffffffffffffffffffffffff16021790555060a08201518160040160146101000a81548160ff02191690831515021790555060c08201518160050160006101000a81548173ffffffffffffffffffffffffffffffffffffffff021916908373ffffffffffffffffffffffffffffffffffffffff16021790555060e0820151816006015550505060016000805490500360016000838152602001908152602001600020819055508091505092915050565b6109eb611c43565b6109f3611c57565b6109fb611c57565b610a03611c6b565b610a0b611c43565b610a13611c6b565b600080610a1e611c43565b610a26611c57565b610a2e611c57565b610a36611c6b565b610a3e611c43565b610a46611c6b565b60009750600096505b600080549050871015610c0b57600087815481101515610a6b57fe5b906000526020600020906007020160040160149054906101000a900460ff168015610b0257503373ffffffffffffffffffffffffffffffffffffffff16600088815481101515610ab757fe5b906000526020600020906007020160040160009054906101000a900473ffffffffffffffffffffffffffffffffffffffff1673ffffffffffffffffffffffffffffffffffffffff1614155b8015610bf05750600073ffffffffffffffffffffffffffffffffffffffff16600088815481101515610b3057fe5b906000526020600020906007020160050160009054906101000a900473ffffffffffffffffffffffffffffffffffffffff1673ffffffffffffffffffffffffffffffffffffffff161480610bef57503373ffffffffffffffffffffffffffffffffffffffff16600088815481101515610ba557fe5b906000526020600020906007020160050160009054906101000a900473ffffffffffffffffffffffffffffffffffffffff1673ffffffffffffffffffffffffffffffffffffffff16145b5b15610bfe5787806001019850505b8680600101975050610a4f565b87604051805910610c195750595b9080825280602002602001820160405250955087604051805910610c3a5750595b9080825280602002602001820160405250945087604051805910610c5b5750595b9080825280602002602001820160405250935087604051805910610c7c5750595b9080825280602002602001820160405250925087604051805910610c9d5750595b9080825280602002602001820160405250915087604051805910610cbe5750595b9080825280602002602001820160405250905060009750600096505b6000805490508710156110b457600087815481101515610cf657fe5b906000526020600020906007020160040160149054906101000a900460ff168015610d8d57503373ffffffffffffffffffffffffffffffffffffffff16600088815481101515610d4257fe5b906000526020600020906007020160040160009054906101000a900473ffffffffffffffffffffffffffffffffffffffff1673ffffffffffffffffffffffffffffffffffffffff1614155b8015610e7b5750600073ffffffffffffffffffffffffffffffffffffffff16600088815481101515610dbb57fe5b906000526020600020906007020160050160009054906101000a900473ffffffffffffffffffffffffffffffffffffffff1673ffffffffffffffffffffffffffffffffffffffff161480610e7a57503373ffffffffffffffffffffffffffffffffffffffff16600088815481101515610e3057fe5b906000526020600020906007020160050160009054906101000a900473ffffffffffffffffffffffffffffffffffffffff1673ffffffffffffffffffffffffffffffffffffffff16145b5b156110a757600087815481101515610e8f57fe5b906000526020600020906007020160000160009054906101000a900473ffffffffffffffffffffffffffffffffffffffff168689815181101515610ecf57fe5b9060200190602002019073ffffffffffffffffffffffffffffffffffffffff16908173ffffffffffffffffffffffffffffffffffffffff1681525050600087815481101515610f1a57fe5b9060005260206000209060070201600101548589815181101515610f3a57fe5b906020019060200201906000191690816000191681525050600087815481101515610f6157fe5b9060005260206000209060070201600201548489815181101515610f8157fe5b906020019060200201906000191690816000191681525050600087815481101515610fa857fe5b9060005260206000209060070201600301548389815181101515610fc857fe5b9060200190602002018181525050600087815481101515610fe557fe5b906000526020600020906007020160040160009054906101000a900473ffffffffffffffffffffffffffffffffffffffff16828981518110151561102557fe5b9060200190602002019073ffffffffffffffffffffffffffffffffffffffff16908173ffffffffffffffffffffffffffffffffffffffff168152505060008781548110151561107057fe5b906000526020600020906007020160060154818981518110151561109057fe5b906020019060200201818152505087806001019850505b8680600101975050610cda565b8585858585859d509d509d509d509d509d505050505050505050909192939495565b60008060008060016000868152602001908152602001600020548154811015156110fc57fe5b906000526020600020906007020160040160149054906101000a900460ff16151561112657600080fd5b6000600160008681526020019081526020016000205481548110151561114857fe5b906000526020600020906007020160040160009054906101000a900473ffffffffffffffffffffffffffffffffffffffff1673ffffffffffffffffffffffffffffffffffffffff163373ffffffffffffffffffffffffffffffffffffffff16141515156111b457600080fd5b600060016000868152602001908152602001600020548154811015156111d657fe5b906000526020600020906007020160050160009054906101000a900473ffffffffffffffffffffffffffffffffffffffff1673ffffffffffffffffffffffffffffffffffffffff163373ffffffffffffffffffffffffffffffffffffffff1614806112c05750600073ffffffffffffffffffffffffffffffffffffffff166000600160008781526020019081526020016000205481548110151561127657fe5b906000526020600020906007020160050160009054906101000a900473ffffffffffffffffffffffffffffffffffffffff1673ffffffffffffffffffffffffffffffffffffffff16145b15156112cb57600080fd5b600060016000868152602001908152602001600020548154811015156112ed57fe5b9060005260206000209060070201600601543414151561130c57600080fd5b6000600160008681526020019081526020016000205481548110151561132e57fe5b906000526020600020906007020160040160009054906101000a900473ffffffffffffffffffffffffffffffffffffffff1692503391506000600160008681526020019081526020016000205481548110151561138757fe5b906000526020600020906007020160060154905081600060016000878152602001908152602001600020548154811015156113be57fe5b906000526020600020906007020160040160006101000a81548173ffffffffffffffffffffffffffffffffffffffff021916908373ffffffffffffffffffffffffffffffffffffffff16021790555061141684611b19565b8273ffffffffffffffffffffffffffffffffffffffff166108fc829081150290604051600060405180830381858888f19350505050151561145657600080fd5b7ff2dbd98d79f00f7aff338b824931d607bfcc63d47307162470f25a055102d3b042848484604051808581526020018473ffffffffffffffffffffffffffffffffffffffff1673ffffffffffffffffffffffffffffffffffffffff1681526020018373ffffffffffffffffffffffffffffffffffffffff1673ffffffffffffffffffffffffffffffffffffffff16815260200182815260200194505050505060405180910390a150505050565b61150b611c43565b611513611c57565b61151b611c57565b611523611c6b565b61152b611c7f565b611533611c43565b61153b611c6b565b600080611546611c43565b61154e611c57565b611556611c57565b61155e611c6b565b611566611c7f565b61156e611c43565b611576611c6b565b60009850600097505b600080549050881015611616573373ffffffffffffffffffffffffffffffffffffffff166000898154811015156115b257fe5b906000526020600020906007020160040160009054906101000a900473ffffffffffffffffffffffffffffffffffffffff1673ffffffffffffffffffffffffffffffffffffffff1614156116095788806001019950505b878060010198505061157f565b886040518059106116245750595b90808252806020026020018201604052509650886040518059106116455750595b90808252806020026020018201604052509550886040518059106116665750595b90808252806020026020018201604052509450886040518059106116875750595b90808252806020026020018201604052509350886040518059106116a85750595b90808252806020026020018201604052509250886040518059106116c95750595b90808252806020026020018201604052509150886040518059106116ea5750595b9080825280602002602001820160405250905060009850600097505b600080549050881015611a0b573373ffffffffffffffffffffffffffffffffffffffff1660008981548110151561173957fe5b906000526020600020906007020160040160009054906101000a900473ffffffffffffffffffffffffffffffffffffffff1673ffffffffffffffffffffffffffffffffffffffff1614156119fe5760008881548110151561179657fe5b906000526020600020906007020160000160009054906101000a900473ffffffffffffffffffffffffffffffffffffffff16878a8151811015156117d657fe5b9060200190602002019073ffffffffffffffffffffffffffffffffffffffff16908173ffffffffffffffffffffffffffffffffffffffff168152505060008881548110151561182157fe5b906000526020600020906007020160010154868a81518110151561184157fe5b90602001906020020190600019169081600019168152505060008881548110151561186857fe5b906000526020600020906007020160020154858a81518110151561188857fe5b9060200190602002019060001916908160001916815250506000888154811015156118af57fe5b906000526020600020906007020160030154848a8151811015156118cf57fe5b90602001906020020181815250506000888154811015156118ec57fe5b906000526020600020906007020160040160149054906101000a900460ff16838a81518110151561191957fe5b906020019060200201901515908115158152505060008881548110151561193c57fe5b906000526020600020906007020160050160009054906101000a900473ffffffffffffffffffffffffffffffffffffffff16828a81518110151561197c57fe5b9060200190602002019073ffffffffffffffffffffffffffffffffffffffff16908173ffffffffffffffffffffffffffffffffffffffff16815250506000888154811015156119c757fe5b906000526020600020906007020160060154818a8151811015156119e757fe5b906020019060200201818152505088806001019950505b8780600101985050611706565b868686868686869f509f509f509f509f509f509f5050505050505050505090919293949596565b8060006001600083815260200190815260200160002054815481101515611a5557fe5b906000526020600020906007020160040160009054906101000a900473ffffffffffffffffffffffffffffffffffffffff1673ffffffffffffffffffffffffffffffffffffffff163373ffffffffffffffffffffffffffffffffffffffff16141515611ac057600080fd5b60006001600084815260200190815260200160002054815481101515611ae257fe5b906000526020600020906007020160040160149054906101000a900460ff161515611b0c57600080fd5b611b1582611b19565b5050565b6000806001600084815260200190815260200160002054815481101515611b3c57fe5b906000526020600020906007020160040160146101000a81548160ff0219169083151502179055506000806001600084815260200190815260200160002054815481101515611b8757fe5b906000526020600020906007020160050160006101000a81548173ffffffffffffffffffffffffffffffffffffffff021916908373ffffffffffffffffffffffffffffffffffffffff1602179055506000806001600084815260200190815260200160002054815481101515611bf957fe5b90600052602060002090600702016006018190555050565b815481835581811511611c3e57600702816007028360005260206000209182019101611c3d9190611c93565b5b505050565b602060405190810160405280600081525090565b602060405190810160405280600081525090565b602060405190810160405280600081525090565b602060405190810160405280600081525090565b611d5891905b80821115611d5457600080820160006101000a81549073ffffffffffffffffffffffffffffffffffffffff02191690556001820160009055600282016000905560038201600090556004820160006101000a81549073ffffffffffffffffffffffffffffffffffffffff02191690556004820160146101000a81549060ff02191690556005820160006101000a81549073ffffffffffffffffffffffffffffffffffffffff0219169055600682016000905550600701611c99565b5090565b905600a165627a7a72305820b366e9c35cf98ecf49bb66fe65ed8d7b9b9ae570315b6576134598f1e52e3dfd0029",
  "source": "pragma solidity ^0.4.19;\r\n\r\n/**\r\n * Property Store\r\n * @author Jiangsha Liu\r\n */\r\ncontract Properties {\r\n    \r\n    struct Property {\r\n        // The creator of this property\r\n        address creator;\r\n        \r\n        // Name of this property\r\n        bytes32 name;\r\n        \r\n        // Long description of this property\r\n        bytes32 desc;\r\n        \r\n        // ID of this property\r\n        uint256 id;\r\n        \r\n        // The owner of the property\r\n        address owner;\r\n        \r\n        // Current sale status\r\n        bool selling;\r\n        \r\n        // Who is the selected buyer, if any.\r\n        // Optional\r\n        address sellingTo;\r\n        \r\n        // How much ether (wei) the seller has asked the buyer to send\r\n        uint256 askingPrice;\r\n    }\r\n    \r\n    // All properties listed\r\n    Property[] private properties;\r\n    \r\n    // mapping between property index and id\r\n    mapping(uint256=>uint256) private map;\r\n    \r\n    //\r\n    // Modifiers\r\n    // \r\n    \r\n    // Makes functions require the called to be the owner of the contract\r\n    modifier onlyOwner(uint256 _propertyId) {\r\n        require(msg.sender == properties[map[_propertyId]].owner);\r\n        _;\r\n    }\r\n    \r\n    // Add to functions that the owner wants to prevent being called while the\r\n    // contract is for sale.\r\n    modifier ifNotLocked(uint256 _propertyId) {\r\n        require(!properties[map[_propertyId]].selling);\r\n        _;\r\n    }\r\n    \r\n    event Transfer(uint256 _saleDate, address _from, address _to, uint256 _salePrice);\r\n\r\n    /**\r\n     * @param _name is name of property\r\n     * @param _desc is long description of property\r\n     * \r\n     * id (timestamp of creation for now) of registered property is returned\r\n     */\r\n    function register(bytes32 _name, bytes32 _desc) public returns (uint256) {\r\n        uint256 _id = now;\r\n        \r\n        properties.push(Property({\r\n            creator: msg.sender, \r\n            name: _name,\r\n            desc: _desc,\r\n            id: _id, \r\n            owner: msg.sender, \r\n            selling: false, \r\n            sellingTo: address(0),\r\n            askingPrice: 0\r\n        }));\r\n        \r\n        map[_id] = properties.length - 1;\r\n        \r\n        return _id;\r\n    }\r\n    \r\n    /**\r\n     * initiateSale is called by the owner of the property to start\r\n     * the sale process.\r\n     * @param _propertyId is id of property returned in function \"register\"\r\n     * @param _price is the asking price for the sale\r\n     * @param _to (OPTIONAL) is the address of the person that the owner\r\n     * wants to sell the contract to. If set to 0x0, anyone can buy it.\r\n     */\r\n    function initiateSale(uint256 _propertyId, uint256 _price, address _to) onlyOwner(_propertyId) public {\r\n        \r\n        require(_to != address(this) && _to != properties[map[_propertyId]].owner);\r\n        require(!properties[map[_propertyId]].selling);\r\n        \r\n        properties[map[_propertyId]].selling = true;\r\n        \r\n        // Set the target buyer, if specified.\r\n        properties[map[_propertyId]].sellingTo = _to;\r\n        \r\n        properties[map[_propertyId]].askingPrice = _price;\r\n    }\r\n    \r\n    /**\r\n     * cancelSale allows the owner to cancel the sale before someone buys\r\n     * the contract.\r\n     */\r\n    function cancelSale(uint256 _propertyId) onlyOwner(_propertyId) public {\r\n        require(properties[map[_propertyId]].selling);\r\n        \r\n        // Reset sale variables\r\n        resetSale(_propertyId);\r\n    }\r\n    \r\n    /** \r\n     * @dev completeSale is called buy the specified buyer (or anyone if sellingTo)\r\n     * was not set, to make the purchase.\r\n     * Value sent must match the asking price.\r\n     */\r\n    function completeSale(uint256 _propertyId) public payable{\r\n        require(properties[map[_propertyId]].selling);\r\n        require(msg.sender != properties[map[_propertyId]].owner);\r\n        require(msg.sender == properties[map[_propertyId]].sellingTo || properties[map[_propertyId]].sellingTo == address(0));\r\n        require(msg.value == properties[map[_propertyId]].askingPrice);\r\n        \r\n        // Swap ownership\r\n        address prevOwner = properties[map[_propertyId]].owner;\r\n        address newOwner = msg.sender;\r\n        uint256 salePrice = properties[map[_propertyId]].askingPrice;\r\n        \r\n        properties[map[_propertyId]].owner = newOwner;\r\n        \r\n        // Transaction cleanup\r\n        resetSale(_propertyId);\r\n        \r\n        prevOwner.transfer(salePrice);\r\n        \r\n        Transfer(now,prevOwner,newOwner,salePrice);\r\n    }\r\n    \r\n    /**\r\n     * \r\n     * return all properties owned by msg.sender, including those created/registered by msg.sender.\r\n     * \r\n     * \r\n     */\r\n    function listAllMyProperties() public view returns(address[], bytes32[], bytes32[], uint256[], bool[], address[], uint256[]) {\r\n        uint256 count = 0;\r\n        for (uint256 i = 0; i < properties.length; i++) {\r\n            if (properties[i].owner == msg.sender) {\r\n                count++;\r\n            }\r\n        }\r\n        \r\n        address[] memory _creator = new address[](count);\r\n        bytes32[] memory _name = new bytes32[](count);\r\n        bytes32[] memory _desc = new bytes32[](count);\r\n        uint256[] memory _id = new uint256[](count);\r\n        bool[] memory _selling = new bool[](count);\r\n        address[] memory _sellingTo = new address[](count);\r\n        uint256[] memory _askingPrice = new uint256[](count);\r\n\r\n\r\n        count = 0;\r\n        for (i = 0; i < properties.length; i++) {\r\n            if (properties[i].owner == msg.sender) {\r\n                _creator[count] = properties[i].creator;\r\n                _name[count] = properties[i].name;\r\n                _desc[count] = properties[i].desc;\r\n                _id[count] = properties[i].id;\r\n                _selling[count] = properties[i].selling;\r\n                _sellingTo[count] = properties[i].sellingTo;\r\n                _askingPrice[count] = properties[i].askingPrice;\r\n\r\n                \r\n                count++;\r\n            }\r\n        }\r\n        \r\n        return (_creator, _name, _desc, _id, _selling, _sellingTo, _askingPrice);\r\n    }\r\n\r\n    /**\r\n     * \r\n     * return all properties could be bought by msg.sender.\r\n     * \r\n     * \r\n     */\r\n    function listAllBuyableProperties() public view returns(address[], bytes32[], bytes32[], uint256[], address[], uint256[]){\r\n        uint256 count = 0;\r\n        for (uint256 i = 0; i < properties.length; i++) {\r\n            if (properties[i].selling && properties[i].owner != msg.sender && (properties[i].sellingTo == address(0) || properties[i].sellingTo == msg.sender)) {\r\n                count++;\r\n            }\r\n        }\r\n        \r\n        address[] memory _creator = new address[](count);\r\n        bytes32[] memory _name = new bytes32[](count);\r\n        bytes32[] memory _desc = new bytes32[](count);\r\n        uint256[] memory _id = new uint256[](count);\r\n        address[] memory _owner = new address[](count);\r\n        uint256[] memory _askingPrice = new uint256[](count);\r\n        \r\n        count = 0;\r\n        for (i = 0; i < properties.length; i++) {\r\n            if (properties[i].selling && properties[i].owner != msg.sender && (properties[i].sellingTo == address(0) || properties[i].sellingTo == msg.sender)) {\r\n                _creator[count] = properties[i].creator;\r\n                _name[count] = properties[i].name;\r\n                _desc[count] = properties[i].desc;\r\n                _id[count] = properties[i].id;\r\n                _owner[count] = properties[i].owner;\r\n                _askingPrice[count] = properties[i].askingPrice;\r\n                \r\n                count++;\r\n            }\r\n        }\r\n        \r\n        return (_creator, _name, _desc, _id, _owner, _askingPrice);        \r\n    }\r\n    \r\n    //\r\n    // Internal functions\r\n    //\r\n    \r\n    /**\r\n     * resets the variables related to a sale process\r\n     */\r\n    function resetSale(uint _propertyId) internal{\r\n        properties[map[_propertyId]].selling = false;\r\n        properties[map[_propertyId]].sellingTo = address(0);\r\n        properties[map[_propertyId]].askingPrice = 0;\r\n    }\r\n}",
  "sourcePath": "C:\\workspace\\ECE1770\\class_project\\contracts\\Properties.sol",
  "compiler": {
    "name": "solc",
    "version": "0.4.19+commit.c4cbbb05.Emscripten.clang"
  },
  "schemaVersion": "2.0.0",
  "updatedAt": "2018-03-18T22:31:50.757Z"
}